:020000040800F2
:100000004008002049020008313800080D3400087B
:100010002D3800088D1E000845380008000000003B
:100020000000000000000000000000003938000857
:10003000C122000800000000353800083D380008E3
:1000400063020008630200086302000863020008FC
:1000500063020008630200086302000863020008EC
:1000600063020008630200086302000863020008DC
:1000700063020008630200086302000863020008CC
:1000800063020008630200086302000863020008BC
:1000900063020008630200086302000863020008AC
:1000A000630200086302000863020008630200089C
:1000B000630200086302000863020008630200088C
:1000C000630200086302000863020008630200087C
:1000D000630200086302000863020008630200086C
:1000E00063020008630200086302000800F002F8DF
:1000F00000F09AF814A696E8000CB244B344DA452E
:1001000001D100F091F8BAE80F000FA696E8300090
:10011000A5EB040504EB0607AAEB0704A7F101070A
:100120004FEA15154FEA3414A4F10104AC4201D38F
:1001300000F07AF813F0010F18BFFB1A43F0010327
:1001400000F001F8DBE71847D4460000F446000051
:10015000103A24BF78C878C1FAD8520724BF30C8F3
:1001600030C144BF04680C60704700007047000055
:100170000023002400250026103A28BF78C1FBD8B0
:10018000520728BF30C148BF0B6070476E2900F08E
:100190005F81702900F02C82662904F0A082652915
:1001A00004F09D82672904F09A82612904F0998203
:1001B000692900F01181642900F00E81752900F091
:1001C0000B816F2900F0B681782900F00482036862
:1001D000DB0928BF41F08001632900F0698773299A
:1001E00000F06E87E32900F08B87F32900F09087F9
:1001F000002070471FB59DE8030001F00FFC00F0E0
:10020000B7FF04000020002104F0FCF8401C6060EF
:100210000020002104F0E0F8E06001F0C1F81FBD0B
:1002200010B501F026F910BD01F05AF91146FFF79B
:10023000E1FF03F0B7FB01F051FB03B4FFF7F0FF60
:1002400003BC01F069FD00000948804709480047E8
:10025000FEE7FEE7FEE7FEE7FEE7FEE7FEE7FEE776
:10026000FEE7FEE704480549054A064B70470000D3
:1002700041380008ED00000840020020400800203E
:10028000400400204004002053EA020C23D010B5A3
:100290004C1084EA530404D54042C1F1000138BF38
:1002A000491E1B4204D55242C3F1000338BF5B1EF6
:1002B00000F096FA14F0804F04D04042C1F10001E2
:1002C00038BF491E14F0004F04D05242C3F100035E
:1002D00038BF5B1E10BD13B540424FF0000070EBFD
:1002E0000104B8BF012001F0004100281CBF6FF0DD
:1002F00000414FF0FF30AFF300801CBD0FB4044944
:1003000010B503AA029800F0DFFE10BC5DF814FBE4
:100310006C00002070B5044685690068C10601D5EF
:10032000302600E02026C00707D070BDD4E90121A7
:1003300030469047206A401C20626D1EF6D570BD85
:1003400070B5044685690078C00707D170BDD4E94F
:10035000012120209047206A401C20626D1EF6D5A6
:1003600070BD09684A0501D540B27047C905FCD582
:1003700000B2704709684A0501D5C0B27047C90587
:10038000FCD580B2704770B50C460546012A05D0F1
:100390002878800600D5EA69002302E0012305E001
:1003A0005B1C934202D2E05C0028F9D1A869E618F0
:1003B000C01AA861286A184428622846FFF7AAFFD5
:1003C00004E0D5E9012114F8010B9047B442F8D3B9
:1003D0002846FFF7B5FF70BD2DE9F0410646002421
:1003E00010687529314616A510D0FFF7BAFF00280E
:1003F00002DA404213A507E031688A0701D512A549
:1004000002E0490704D511A5012401E0FFF7B2FF7E
:1004100000210A2206F1240709E0B0FBF2FCB0FB40
:10042000F2F302FB1C00303078541846491C0028B7
:10043000F3D123462A463046BDE8F04100F048BAE1
:10044000000000002D0000002B0000002000000034
:1004500011680268006A530501D508700AE0D305E7
:1004600001D5088006E0130603D5C217C1E90002D2
:1004700000E00860012070472DE9FF5F15468A46BD
:100480000446DFF8AC80F8440027D8E900103E4667
:10049000CDE9001010E03AF816106A4602A800F004
:1004A0003BFE411C07D02178890603D5E269391843
:1004B00091420DD80744761C2078800602D5E06969
:1004C000B84205DDAE42E6DB3AF816000028E2D17C
:1004D000A069C01BA0612046FFF71CFFD8E90010EF
:1004E000CDE90010002017E03AF818106A4602A87B
:1004F00000F012FEB0F1FF3F81460BD000250DF158
:10050000080B05E0D4E901211BF8050090476D1C9C
:100510004D45F7D308F10100B0428046E4DB206A84
:10052000384420622046FFF70BFFBDE8FF9F000024
:100530005E42000070B5044621461068FFF71AFFBE
:10054000002104F1240505E000F007023032C00864
:100550006A54491C0028F7D12068002308A2050727
:1005600008D500F02000084304D0E069012305A26B
:10057000401EE0612046BDE8704000F0A9B90000CF
:100580000000000030000000F0B40D4601880905AD
:1005900002D51B4C7C4402E0194C7C440E340021F3
:1005A00000F1240305E002F00F061209A65D5E5477
:1005B000491C002AF7D102780023120704D5702DB8
:1005C00006D009B1022311342246F0BC00F080B9F4
:1005D00001231034F8E770B504460D462146106833
:1005E000FFF7C8FE024629462046BDE87040CBE72B
:1005F0000368126843F0200303600823C361C3E764
:10060000584100002DE9F05F894604464FF0000A8A
:10061000DFF874B1FB44C0F820A02046E1688847A9
:10062000002874D0252806D0D4E901219047206AFB
:10063000401C2062F1E700265F462046E1688847BB
:100640002028054607DB312D05D2781910F8200C3B
:1006500008B10643F1E7B00701D526F00406C4F857
:100660001CA00027C4F818A02A2D09D0284603F0A2
:100670009DFE38B304EB8708303DC8F8185019E0E8
:1006800059F8041B204604EB87029161E168884712
:10069000012F054618D1E069002820DA26F020064F
:1006A0001DE0D8F8180000EB800005EB4000303862
:1006B000C8F818002046E1688847054603F076FE32
:1006C0000028EED1012F0AD02E2D08D12046E16856
:1006D00088477F1C0546022F46F02006C4DBA06930
:1006E000002803DA404246F00106A061F00701D07D
:1006F00026F010066C2D0BD0682D09D04C2D39D06A
:100700006A2D35D0742D35D07A2D33D016E038E0EF
:10071000E1682F4620468847B842054609D16C2F2C
:1007200026D04FF48060E16806432046884705469E
:1007300004E06C2F1AD04FF4807006430DB3A5F17E
:100740004100192802D8203546F400664A46294659
:10075000204626604E46FFF719FD80B101280BD0D8
:10076000F61D26F0070000F1080956E74020E4E7EF
:100770008020D8E70020D6E706F104094DE7284697
:1007800052E7206ABDE8F09F004100004FF00002F0
:1007900000B5134694469646203922BFA0E80C5077
:1007A000A0E80C50B1F12001BFF4F7AF090728BF52
:1007B000A0E80C5048BF0CC05DF804EB890028BFCE
:1007C00040F8042B08BF704748BF20F8022B11F0F7
:1007D000804F18BF00F8012B704770477047704773
:1007E00053EA020C00F069802DE9F04B4FF000064F
:1007F000002B1FBFB3FA83F503FA05F424FA05F6BC
:100800005E4012BF1643B2FA82F502FA05F4C5F152
:1008100020051EBF22FA05FC44EA0C04203556EAE6
:10082000044C4FEA144418BF641C4FF000084FF00A
:100830000009904271EB030C39D3002919BFB1FABA
:1008400081F701FA07F6B0FA80F700FA07F6C7F168
:1008500020071EBF20FA07FC46EA0C062037B6FB2D
:10086000F4FCA7EB0507103F07F01F0BCBF12006A8
:100870002CFA06F60CFA0BFB44BFB3460026202FD9
:10088000A4BF5E464FF0000B5BEA060C08BF4FF0BA
:10089000010B19EB0B0948EB0608ABFB027C06FBCE
:1008A00002CC0BFB03CCC01B71EB0C01C1E70B4668
:1008B000024641464846BDE8F08B13B5084318BFD1
:1008C0004FF0FF300146AFF30080BDE81C40704799
:1008D0002DE9F0470D4699469246044600F124085A
:1008E0000168880604D5E06921F01001216000E06C
:1008F0000120A84201DD471B00E00027A1697A1909
:1009000002EB0900081AA0612078C00602D4204634
:10091000FFF700FD002608E0D4E901211AF80600DF
:100920009047206A401C761C20624E45F4DB2078FC
:10093000C0060AD52046FFF7EDFC06E0D4E9012108
:1009400030209047206A401C2062381EA7F1010722
:10095000F4DC07E0D4E9012118F805009047206A8B
:10096000401C2062281EA5F10105F3DC2046FFF79C
:10097000E7FC2078000602D50220BDE8F0870120C0
:10098000FBE72DE9FF4F0C461E464FF0FF378BB0BB
:10099000D2E90001DDF860800A908A46C1F30A5569
:1009A00005B93D46002108464FF00000BAF1000F9E
:1009B00000F4400005DA00EB80004FF4400101EA4A
:1009C00050004FEA9059B9F1010F00DDB9460A987D
:1009D00050EA4A000ED044F61050A5F2FF354543C8
:1009E0002F14B8F1000F1ED07542291E1EDDC9F16B
:1009F00000021CE0B8F1010F4FF0000001D03021DF
:100A000003E0F24305E02154401CB042FBDB3046DA
:100A10000022002121540B99C1F80880C1E900206F
:100A20000FB0BDE8F08FBD1B6D1CDEE74A4600DA53
:100A3000694206A800F03EFC06AB93E8070003AB52
:100A400083E8070050460A9903F0D4F88DE80700C0
:100A5000A0F500501F3800900398002D0ADD42F2E7
:100A60001F014A460844002303A90390684603F087
:100A70003DFB09E0A0F500504A461F38002303A9BA
:100A80000390684603F047FB8DE807000004000C64
:100A900003D04FF0FF30410800E01046B8F1000FDE
:100AA00003D00022009215461EE0751E05D400F00A
:100AB00063FB303262556D1EF9D5B34601220843FF
:100AC00002D000227F1C04E02078302801D10022CF
:100AD0007F1E002A099784D01DE0112D07DA00F04F
:100AE0004BFB303262556D1C50EA0102F5D10843D0
:100AF00002D00098C8B10EE00021681E05E0235C1A
:100B0000625C63542254401E491C8142F7DBAB46B1
:100B1000A81B401E0990002004F80B000B98099AAE
:100B2000C0F80880C0E9002B7AE711264FF00008D2
:100B300057E72DE9F04F88460446D21D22F0070101
:100B400091B0D1E90001CDE90A0103F01BFC024696
:100B50000B98C00F01D02D2007E02068810701D538
:100B60002B2002E0202101EAC000032A099001D0D5
:100B7000072A05DB03464146204600F05BFB0BE1FC
:100B80002078800601D5E06900E00620B8F1650F05
:100B9000814606D0B8F1660F18D0B8F1670F70D152
:100BA00031E00020B9F1110F009001DB112301E0C9
:100BB00009F101030AAA01A90CA8FFF7E2FEDDE989
:100BC0000C70002609F10105834647E001204B46E1
:100BD00000904FF000470AAA01A90CA8FFF7D1FE28
:100BE000DDE90DB00C995D46002610B909F1010050
:100BF0000D18B9EB050003D4C0F1FF3609F101056A
:100C0000A5EB09002BE0B9F1010F01DA4FF0010962
:100C10000020B9F1110F0090484601DD112300E0DA
:100C200003460AAA01A90CA8FFF7ABFEDDE90C7088
:100C30004D4600268346207800070AD4AB4500DAEB
:100C40005D4601A8012D04DD411911F8011C302970
:100C500007D04F4502DA17F1040F04DA012082466B
:100C60000FE06D1EEEE7002F02DCED1B3E4403E0BB
:100C7000781CA84200DD7D1CB81B00F1010A4FF072
:100C800000472078000703D4AA4501DB4FF0FF3A64
:100C90000021B7F1004F0DF143088DF8431024D027
:100CA00002202B23002F01DA7F422D230A21021E6E
:100CB000A0F1010000DC5FB197FBF1FC97FBF1F2C2
:100CC00001FB1C7C17460CF1300C08F801CDEEE757
:100CD000A8F1010003702188090501D5452100E034
:100CE0006521A0F1010800F8011C09980FA9A1EBEA
:100CF0000807FF1D00B10120411901EBEA70A1694D
:100D00003844081A401EA0612078C00602D420464C
:100D1000FFF700FB099828B1D4E901219047206A28
:100D2000401C20622078C00622D52046FFF7F2FA48
:100D30001EE0002E04DBB34502DD01A8805D00E06B
:100D40003020D4E901219047206A401C2062761CA3
:100D5000AAF101005FEA000A0AD100F009FAC068AE
:100D60000168405CD4E901219047206A401C206260
:100D7000281EA5F10105DCDC07E0D4E9012118F803
:100D8000010B9047206A401C2062381EA7F1010722
:100D9000F3DC2046FFF7D4FA032011B041E600004F
:100DA0002DE9F04F04460D46D21D22F0070089B010
:100DB000D0E900974846394603F0E4FA0246F80FB6
:100DC00001D02D2307E02068810701D52B2302E005
:100DD000202101EAC0038DF820300BB1012000E092
:100DE0000020032A824601D0072A04DB2946204638
:100DF00000F020FA3FE12078800601D40D2500E0C4
:100E0000E569C7F30A560D2D49DA00214FEA175B51
:100E100008464FF00000002F00F4400007DA00EB16
:100E200080004FF4400100EBD07001EA60008115B2
:100E3000012901DD4FF0FF3100224FEA850CBCF1A2
:100E4000180F06D31346ACF118004FF08052C24081
:100E500003E04FF4801323FA0CF30CF10C0CBCF1FB
:100E6000200F04D3ACF1200C09FA0CF001E007FAD2
:100E70000CF000294FF0004801DD18B90FE00ED149
:100E800040450CD319EB02095F4121B9404502D11D
:100E90009F4329EA0209BBEB175F00D0761C20882C
:100EA000000502D57B48784402E07A487844193836
:100EB00008AA302302F80A30037C0AF10101002E4F
:100EC0000AF1020A53546A4602DC4FF0300101E095
:100ED0004FF031014FF001088DF8001002D0A6F25A
:100EE000FF3603E059EA470100D06B4E002D02DCCB
:100EF0002178090704D54FF002082E218DF8011042
:100F0000C44600210BE0C7F303433F01C35C491C07
:100F10006D1E02F80830052908F1010801DA002DDC
:100F2000F1DC00210CE000EB1973491C1B786D1EED
:100F3000082902F808304FEA091908F1010801DA16
:100F4000002DF0DC21688B0602D516E0A8F101081F
:100F5000E04505DD02EB080313F8013C302BF5D02A
:100F6000B8F1000F09DD02EB080313F8013C2E2B4A
:100F700003D1090701D4A8F10108002D05DD3E21A8
:100F800002F808106D1E08F10108407C002E02F8DE
:100F9000080008F1010804DA2D20764202F8080062
:100FA00002E02B2002F808000A214FF47A708642F2
:100FB00008F101080BDB96FBF0F3303302F8083040
:100FC00096FBF0F308F1010800FB136601E0642EC4
:100FD0000CDB642096FBF0F3303302F8083096FB0C
:100FE000F0F308F1010800FB136601E00A2E06DBAE
:100FF00096FBF1F0303002F8080008F1010896FB8A
:10100000F1F001FB1060303002F80800A16908F12E
:10101000010808EB050202EB0A00081AA06120781B
:10102000C00602D42046FFF775F9216A08AE01EB2D
:101030000A00206204E0D4E9012116F8010B904770
:10104000BAF1010AF7D22078C00602D52046FFF790
:1010500061F96E4609E016F8010B3E280FD0D4E97D
:1010600001219047206A401C2062B8F10108F2D2A9
:101070002046FFF765F909B00320BDE8F08F206A2C
:101080002844206203E0D4E90121302090476D1EFE
:10109000EBD3F8E79238000002FCFFFF10B543697C
:1010A00013B1AFF3008001E0FFF76DF9012010BD2F
:1010B000127800F124010A7000224A700122EDE743
:1010C00011684FF0FF32E9E7074B70B50D467B44DE
:1010D00000F09DF80446284600F05EF910B14FF08C
:1010E000FF3070BD204670BDE932000010B5436985
:1010F00013B1AFF3008001E0FFF7BEF9012010BD8E
:10110000128800F1240182840022C2840122EDE7CA
:1011100011684FF0FF32E9E72DE9F04116460C4621
:10112000054600F01DF8036893F80101012807D077
:10113000FF2C12D8185D80B101202C70BDE8F08121
:10114000D3F807013246214603F20713C718284691
:10115000BC46BDE8F041002360474FF0FF30EDE7AB
:1011600010B500F005F8001D10BD00BF9932000059
:10117000004870473401002030B5B0F10A0271F127
:1011800000034FEA900E4EEA817EB0EB0E0061EB59
:1011900091014FEA101E4EEA017E10EB0E0041EB6A
:1011A00011114FEA102E4EEA016E10EB0E0041EBCA
:1011B00011214FEA104E4EEA014E10EB0E0041EBAA
:1011C0001141401841F100014FEAD00040EA41705E
:1011D0004FEAD1014FEA810444EA907410EB800594
:1011E00044EB01046D1944EB0404521BA3414FF07E
:1011F000000348BF0A3200D530BD401C41F1000158
:1012000030BD000001694A1C02610878704700B5D2
:101210008FB0CDE901310021059105497944CDE92F
:10122000031011466846FFF7EDF90FB000BD00004E
:10123000E5FFFFFF2DE9F0411F4604460326016844
:10124000072A01F4006004DB08B116A505E016A525
:1012500003E008B115A500E015A521F010002060FD
:10126000A069C01EA0610FB1401EA0612046FFF71B
:1012700051F84FB1D4E9012138469047206A401C0B
:101280002062C01C206206E0206AFAE7D4E901214E
:1012900015F8010B9047761EF8D22046FFF750F85C
:1012A000BDE8F0814E414E006E616E00494E460031
:1012B000696E66002DE9F047814616468AB03548CA
:1012C00078440DC88DE80D0032487844801C03AC8A
:1012D0000DC884E80D0041F69B300844372190FB8F
:1012E000F1F290FBF1F5A5F1800501FB12041B3C26
:1012F00002D56442012000E00020DFF898A080467B
:101300000027FA44AAF1BE0A0EE0E0070AD03246EE
:10131000684607EB470101230AEB810102F0FBFE5F
:101320008DE8070064107F1C002CEED1194F7F441C
:10133000AE3F19E0E80715D007EB04100DF1180ACD
:1013400090E80E008AE80E00C068F04201D19819BA
:1013500008903246012306A903A802F0DCFE03AB85
:1013600083E807006D10641C002DE3D14FF00103EA
:1013700032466946B8F1000F03A802D002F0B6FE6B
:1013800001E002F0C8FEC9E90001C9F808200AB06E
:10139000BDE8F08708350000007B00F08000704752
:1013A00010B542485421FFF7F1F941485421FFF7A5
:1013B000EDF940485421FFF7E9F93F493B483C4AE1
:1013C0003F4B08603D490A603A491960531C036568
:1013D000481C1065012008653B48344A39A178440F
:1013E00000F0DEF920B9384878440A3800F07FFA76
:1013F00037482F4A35A1784400F0D2F920B9344853
:1014000078440A3800F073FA32482A4A2FA1784407
:1014100000F0C6F920B92F4878440A3800F067FA7E
:1014200040232248DC000021224600F096F920B13A
:1014300025487844543800F05AFA1D482246402383
:10144000002100F08AF920B121487844543800F096
:101450004EFA184822461023002100F07EF9002899
:1014600006D01C487844BDE81040563800F03FBA1A
:1014700010BD104870B5006D20F001040B4800F05D
:1014800007FA0B4800F004FA0A4800F001FA09E0F4
:10149000206D20F00105204600F0FAF9204600F00A
:1014A00044F82C46002CF3D170BD00001800002039
:1014B0006C000020C000002000000020040000207C
:1014C00008000020720000000234000077000000D5
:1014D000EE330000DA3300000048704714010020AA
:1014E0007546FFF7F9FFAE4605006946534620F002
:1014F0000700854618B020B5FEF7B4FEBDE82040D1
:101500004FF000064FF000074FF000084FF0000BBF
:10151000AC46ACE8C009ACE8C009ACE8C009ACE82E
:10152000C00921F007018D46704770B50446051FBC
:1015300000F058FA0068002C14BF446870BD002CFD
:1015400018BFAC423CBF20466468F8D301680A1853
:10155000AA4218BF456003D12A68054611440160BC
:1015600028684119A1421CBF6C6070BD6168696048
:1015700021680844286070BD2DE9F05F05461746D4
:101580000C46C86820F4201040F48000C860800633
:1015900002D5084600F07FFBE06841F282014FF07F
:1015A000FF3A0140022903D0204600F011FBB9E0C8
:1015B00000F42041B1F5004F0FD1C00306D561689A
:1015C000E06A884200D80846606006E02069E06270
:1015D0006060606900F0FFF9A061A0680022EEB2CF
:1015E00000280DDAE1688B050AD4C043A06041F4FD
:1015F00090302260E0606068411C61600670AAE083
:10160000E0689146226040F40050E060206978BBB9
:10161000606900F0D2F904F124054FF00108A8B187
:10162000A08910F4407F08D0E06900F026FA20611C
:1016300018B1E06840F4006017E0C4F81C80256130
:10164000E06820F4407040F480600EE0E06900F053
:1016500014FA00282061F0D0E06840F4006010F433
:10166000407FE06002D140F48070E06020696060FB
:10167000E06825696FF0010BC1051ED56168E06A5D
:10168000884200D80846411B04D02246284600F074
:10169000A9FAE8BB1FB1E562C4E9015959E0681C29
:1016A000E0626060E069401EA060E06840F4803065
:1016B000E06030462E70BDE8F09F17B100F4803234
:1016C0000AE06068411C61600670E0680A2E40F420
:1016D0008030E06006D00022E16A6068814203D970
:1016E0000B4602E00122F7E70346B4F80CC05B1B8F
:1016F0005FEA4C5C04D4D4F81CC09C4500DD02B306
:10170000814200D80146002BA1EB0008E56200E011
:1017100008E0C4E9015907DD22461946284600F0D1
:1017200061FA08B15046C6E7B8F1000F09D0A169C7
:10173000E5626560A1EB0800A061E06840F0100080
:10174000E06047B16168A069E562491B08446560D3
:10175000A0615846AFE73046ADE770B5C468A5074D
:1017600013D0650211D4B2F5807F09D0B2F5007FA5
:1017700006D0B2F5806F08D1012300F1240106E004
:101780005D1E6FF07F46B54201D3012070BD01613F
:10179000C361416024F470611143C160002070BDD9
:1017A0002DE9F0410C461646070047D0104600F0E0
:1017B0006FF82078611C61280AD0722802D077283F
:1017C0003CD102E00125002405E00225042402E0CA
:1017D000082448F2020511F8010B2B2806D06228D4
:1017E00009D011F8010C74280AD00BE045F003056C
:1017F00044F00204EFE745F0040544F00104EAE791
:1018000044F010043846214600F0B8F8411C15D0C9
:101810000021316171604FF40071F560F161706118
:10182000200704D530460222002100F055F9306D22
:1018300040F0010030653046BDE8F0810020FBE754
:101840002DE9F0410D460646104C206DC10704D02D
:10185000410804D020F00104F7E722460EE05420AE
:1018600000F00BF907000ED0206D47F0010108438E
:10187000542120653846FEF789FF3A46294630460E
:10188000BDE8F0418CE70020D6E7000018000020FA
:101890002DE9F04704464FF0FF380026C568D4E92B
:1018A0000497A80718D0204600F0D2F9384600F077
:1018B0006FF8002800DA4646280502D54846FFF7AB
:1018C00034FE4C212046FEF761FF206D20F0010020
:1018D00020653046BDE8F0874046FBE710B504467A
:1018E000AFF300802046BDE81040FEF7A6BC10B55F
:1018F00000F0F8F9BDE8104000F0EEB94FF0013CFF
:1019000050F8042B51F8043B9A4221D1A2EB0C036E
:10191000934313EACC1317D150F8042B51F8043B2E
:101920009A4215D1A2EB0C03934313EACC130BD1CB
:1019300050F8042B51F8043B9A4209D1A2EB0C0356
:10194000934313EACC13DBD04FF00000704700BF85
:10195000D01A01BAB1FA81F101F0180122FA01F0AE
:10196000CB40DBB2C0B2C01AC1F120012CFA01F3A6
:10197000D11A914311EAC311E6D170470EB5CDE9F2
:10198000000100F031FA029069460120ABBE0EBDA5
:1019900008B5694600900220ABBE08BD1FB58DE8B2
:1019A000070069460520ABBE04B010BD1FB58DE829
:1019B0000F0069460620ABBEF6E708B56946009001
:1019C0000920ABBE08BD1CB5CDE9000169460A205F
:1019D000ABBE1CBD704708B5694600900C20ABBE7D
:1019E00008BD0000004870471C0100207047704788
:1019F0007047704738B504460A4600206946AFF381
:101A00000080002808BF38BD02460099204600F03B
:101A100090F9012038BD012000F0DFB9F8B5AFF32F
:101A20000080054600200C460C2000BF0646A81981
:101A3000A0420DD9324669460020AFF3008007006E
:101A400008BF00F0CAF90098A04218BF0546C419A3
:101A5000FFF7C8FF05600746F01D20F00700461994
:101A6000284600F060F9B44208BFF8BDA21B314619
:101A70003868BDE8F84000F05CB970B50646FFF77D
:101A8000B1FF056806F10B0020F00704B4429CBFCB
:101A9000002070BD2B466A68BAB11068A04210D30E
:101AA00004F1080188423CBF5068586007D3516870
:101AB000101941601168091B016058601460101D05
:101AC00070BD13465268002AE7D121462846FFF729
:101AD00091FF0028DED170BD2DE9F0410446164685
:101AE0000D464769007B80072ED03846FFF765FF1B
:101AF00050BB3EB3012E02D0022E25D104E0204679
:101B000000F031F905441DE03846FFF764FFE16855
:101B1000002841F01001E16005DA204600F058F895
:101B20000120BDE8F081C9030BD56268E16A9142EA
:101B300000D81146A26911442269891A814200DD48
:101B400008460544002D01DA0220EAE7E16A6068F0
:101B5000E268814206D29103E06203D522F40031AB
:101B600041F01002A6690027AE4213DCE16A81420F
:101B700001D90B4600E0034603EB060C2369ACEBEE
:101B8000030CAC4506DD814201D98C4600E0844659
:101B90009C4505D1A760276042F02000A5620DE0BA
:101BA000AD1BE669AE1B8142A66000D90846C01A8B
:101BB000281A20605819606022F02000034908406C
:101BC000E060002084F84870ABE70000BFCFD7FF8B
:101BD000C16821F4001141F08001C16000218160E1
:101BE000016070472DE9F74F15460C464FF0FF3B5B
:101BF0003848D768D2F814A0074209D05046A969DE
:101C0000FFF7E1FE002819DB3248C0430740EF60D0
:101C10004FF000496FF000484C4501D3464600E0C4
:101C2000264600993B4650463246FFF7B7FEA96963
:101C300020F00042B21A1144A96128B12846FFF7EA
:101C4000C7FF5846BDE8FE8FA41BE5D10020F9E789
:101C500070B504460569C06A6168884200D80846C4
:101C6000E16821F42011E160C90312D5A84208D02F
:101C70002246411B2846FFF7B5FF10B14FF0FF3059
:101C800070BD0020E562C4E90150E06820F48030B6
:101C9000E060002070BD10B50446C06820F0200050
:101CA000E060A16AA06988420DD02046FFF7D0FF0E
:101CB000E06820F4405040F01000E060A06AA061AD
:101CC0002069E062606044F24001E0688843E060BF
:101CD00010BD000010000200002801D000F01CB868
:101CE0007047000010B5014602A000F05DF8012029
:101CF00010BD000053494752545245443A205265A2
:101D00006469726563743A2063616E2774206F7032
:101D1000656E3A200000000001491820ABBEFEE7C6
:101D200026000200704700210160416070470C20CE
:101D30007047034640688C46002818BF88423CBF65
:101D400003464068F8D318681844884207D00CF15D
:101D5000030020F00700001D411A521A0146081D19
:101D60000A60FFF7E2BB10B50146C268900703D0D6
:101D7000900607D5886A0AE000F05CF8012101604E
:101D8000881E10BD8B69486818440B69C01A91F809
:101D900048301BB191F84910401A10BD1103FCD511
:101DA0000028FADD401E10BD70B505460C460A201D
:101DB00000E06D1C00F037F835B128780028F8D124
:101DC00002E0641C00F02FF814B120780028F8D14C
:101DD000BDE870400A2000F026B810B500F02EF8DB
:101DE000BDE81040FFF778BF10B5431C02E010F8C3
:101DF000011B71B18107FAD14FF0013202C88C1A70
:101E00008C4314EAC211F9D0C01A0A0603D0C01ECE
:101E100010BDC01A10BD0A0401D0801E10BD0902F9
:101E2000FCD0401E10BD08B569468DF800000320A7
:101E3000ABBE08BD004870471401002010B5012852
:101E400005D0002103A0FFF7AFFF012010BD09A1BD
:101E5000F8E7000053494752544D454D3A204F751D
:101E600074206F662068656170206D656D6F727992
:101E7000000000003A2048656170206D656D6F724A
:101E80007920636F7272757074656400FEE70000FC
:101E900070B582B00446C07A1826002818BF012009
:101EA0004FEAC00505F1040008BF10268DF80400B4
:101EB000012000F007FA301D8DF8060001208DF892
:101EC000055000F0FFF9206821798DF807604FF484
:101ED0007A7601AA0423009600F0D4FB052000F0D6
:101EE000F1F902B070BD00002DE9F04182B0044666
:101EF00008982160A07140F60640C2F61400C4F8AC
:101F000007000820E07232202271637100F0DAF9D4
:101F1000E07A3825002808BF30252E1D01203827FB
:101F20008DF8046000F0CEF901208DF805508DF891
:101F3000066000F0C7F9206821794FF47A7801AA89
:101F400004238DF80750CDF8008000F09BFBE07A69
:101F50003826002808BF3026351D01208DF8045092
:101F600000F0B0F901208DF805608DF8065000F002
:101F7000A9F92068217901AA04238DF80760CDF81A
:101F8000008000F07FFB052000F09CF9E07A282516
:101F9000002808BF302707F1040008BF20258DF86E
:101FA00004000120282600F08DF9281D8DF8060078
:101FB00001208DF8057000F085F92068217901AACB
:101FC00004238DF80750CDF8008000F05BFB05205E
:101FD00000F078F9E07A2825002818BF012008BF12
:101FE0002025C700281D8DF80400012000F06AF9A3
:101FF000381D8DF8060001208DF8055000F062F9BB
:102000002068217901AA04238DF80770CDF800809B
:1020100000F038FB052000F055F9E079E27A010183
:1020200020F00F0501F10807002A14BF0835070149
:10203000281D8DF80400012000F044F9381D8DF8AA
:10204000060001208DF8055000F03CF92068217948
:1020500001AA04238DF80770CDF8008000F012FB70
:10206000207AE27A010120F00F0501F10807002A29
:1020700014BF08350701281D8DF80400012000F069
:1020800021F9381D8DF8060001208DF8055000F06B
:1020900019F92068217901AA04238DF80770CDF879
:1020A000008000F0EFFA607AE27A010120F00F057B
:1020B00001F10807002A14BF08350701281D8DF813
:1020C0000400012000F0FEF8381D8DF80600012004
:1020D0008DF8055000F0F6F82068217901AA042354
:1020E0008DF80770CDF8008000F0CCFAA07AE27A83
:1020F000010120F00F0501F10807002A14BF08357F
:102100000701281D8DF80400012000F0DBF8381DC0
:102110008DF8060001208DF8055000F0D3F82068F6
:10212000217901AA04238DF80770CDF8008000F012
:10213000A9FAE07A1827002818BF01204FEAC00545
:1021400005F1040008BF10278DF80400012000F0FD
:10215000B9F8381D8DF8060001208DF8055000F003
:10216000B1F82068217901AA04238DF80770CDF811
:10217000008000F087FAE07A00280CBF20260120BA
:10218000C500281D8DF80400012000F09BF8301DCB
:102190008DF8060001208DF8055000F093F82068B6
:1021A000217901AA04238DF80760CDF8008000F0A2
:1021B00069FA02B0BDE8F08170B582B0044640799A
:1021C000A379884298BF411E934298BF5A1ED0B24D
:1021D000032805D8DFE800F009020608403104E0D2
:1021E000002102E0143100E054310A01E37A01F0E9
:1021F000700002F108056FF07702002B08BF6FF046
:102200007F0202EB000606F1040008BF0D018DF805
:102210000400012000F056F8281D8DF8060001206A
:102220008DF8056000F04EF8206821794FF47A7639
:1022300001AA04238DF80750009600F023FA02B09B
:1022400070BD00000A78002A08BF70472DE9F047EA
:1022500082B082464E1E4FF47A780DF1040900BF19
:1022600011019AF80B3022F00F0001F10807002B42
:1022700014BF08301701451C05308DF804000120FB
:102280007C1C00F01FF8781D8DF8060001208DF8E9
:10229000055000F017F8DAF800009AF804104A46E2
:1022A00004238DF80740CDF8008000F0EBF9B278F8
:1022B0000136002AD4D102B0BDE8F04770470000D3
:1022C00070470000B0B5044600F024F9054640F21E
:1022D0000C00C2F200000078611C18BF044400BF6B
:1022E00000F018F9401BA042FAD3B0BD2DE9F04F21
:1022F00082B00E68002E00F0FD8041F20042C4F270
:102300000102042340F2004E904208BF03234FF61F
:10231000FF7CC4F2010E009300240123C1F2100CD3
:102320004FF0000A4FF0000944E000BF012704F01D
:102330000C030F229A402BEA020207FA03F34FEA3A
:102340009A051A4346F825204E6840F20C45F202E1
:10235000DEF8082054BF22EA080242EA0802C4F26A
:102360000105CEF808202A68B30254BF22EA080209
:1023700042EA08022A60B303DEF8042054BF22EACE
:10238000080242EA0802F303CEF80420DEF8002037
:102390004FF0010354BF22EA080242EA0802CEF8D5
:1023A00000200E680AF1010A36FA0AF204F1040468
:1023B00000F0A08003FA0AFB16EA0B08F1D04E6881
:1023C000664511DC122E55D8DFE806F0340A444881
:1023D000545454545454545454545454544C50001D
:1023E000D1F80C9046E000BF4FF6FF72C1F2210217
:1023F00096420FDC0022C1F2110296421AD000224E
:10240000C1F21202964215D00022C1F22102964278
:1024100010D02FE00022C1F2220296420AD0002200
:10242000C1F23102964205D00022C1F23202964238
:1024300020D100BF8A684AB1012A14BFC0F814B085
:10244000C0F810B04FF0080914E000BF4FF00409C5
:1024500010E000BFCA6802F108090BE04FF0000964
:1024600008E000BFCA6802F1040903E0CA6802F18B
:102470000C0900BF22460646B8F5807F24BF203AEB
:10248000043637680F25954027EA050509FA02F258
:102490002A433260CA79D2067FF583AF41F218032E
:1024A000C4F202031A68AEF57E7642F001021A60A9
:1024B0001A6802F001020192019A2AF0030256F80A
:1024C00002B040F60002C4F20102904210D040F681
:1024D0000042C4F2010290423FF428AF41F20002F0
:1024E000C4F20102009F904208BF02271FE700BF0D
:1024F00000271CE702B0BDE8F08F000080680840AC
:1025000018BF012070470000002A08BF09040161BC
:102510007047000040F23C20C2F2000000687047A3
:10252000002804BF01207047F0B581B0044690F840
:102530003D0028B9002084F83C00204600F090F9C6
:10254000242084F83D002068016821F00101016029
:10255000016841F400410160016821F4004101601B
:1025600000F036FB636848F2A16CC0F2010C40F643
:102570000011C0F23D0163453CBF48F28041C0F20A
:102580001E01884202D2012001B0F0BD4DF68361E8
:10259000C4F21B31A0FB01122168970CD1F804E0B2
:1025A0004FF496762EF03F0545EA92454D6077430D
:1025B00048F638160D6AC0F24106A7FB067625F0EC
:1025C0003F07634538BF960C721C3A430A62CA69DA
:1025D00048F2A0664CF6FF77C0F20106B34222EA49
:1025E00007020BD801385B00B0FBF3F001306FF34A
:1025F0001F30042898BF04201BE000BFA7680138E3
:1026000057B119277B43B0FBF3F001306FF31F3054
:1026100070B100F5804007E003EB4303B0FBF3F03B
:1026200001306FF31F3018B100F5004001E000BF2A
:1026300001201043C8610868D4E9072320F0C000D6
:10264000104318430860886848F2FF3204F10C0711
:1026500090438CCF18431043A6698860C86820F067
:10266000FF0038433043C860086840F0010008604C
:1026700000202021206484F83D10206384F83E006F
:1026800001B0F0BD2DE9F04383B01E4617468946E0
:102690000446FFF73FFF94F83D10202924D105465A
:1026A000206800BF816989071AD5FFF733FF411BF6
:1026B00020681A29F6D381698907F3D500202021E3
:1026C000206384F83D1084F83E00216C41F0200125
:1026D000216484F83C00022003B0BDE8F08300BF11
:1026E00094F83C10012903D1022003B0BDE8F08327
:1026F000012184F83C100168C90703D1016841F049
:1027000001010160016840F2020821F400610160EA
:10271000212184F83D10102184F83E10002121640D
:1027200067626685618DC0F201082185A8F10211FA
:10273000E162E16A0A9E11F5803F18BF01291DD1AF
:10274000016841F48071016020464FF001110022C0
:102750003346009500F0BAFE50B120680068C0050D
:1027600044BF4FF400702064012003B0BDE8F08343
:102770002069B0F5804F07D1FE2015E00829DFD091
:10278000216B1229DCD0DFE7062000EAD91021688E
:10279000F030086108F10601204632462B4600F071
:1027A0007BFF0028E0D1FF20216800EA09000861D2
:1027B0002046414632462B4600F06EFF0028D3D11A
:1027C000002002902068416902918069029002987D
:1027D00006E000BF204631462A4600F019FE18BB2D
:1027E000208D68B3204631462A4600F0C1FFD8B993
:1027F000606A2168024612F8013B0B616262628DD9
:10280000013A6285228D531E23854F697F07E1D5EA
:102810001B04DFD0437802300B616062608D0138A9
:102820006085901E2085D5E7206C04289CD1206807
:10283000016841F400710160012003B0BDE8F0833C
:102840002068016841F400710160202084F83D0097
:10285000002084F83E0084F83C0003B0BDE8F0831B
:1028600010B586B045F200410068C4F200010022B4
:102870008842049202D006B010BD00BF41F2180495
:10288000C4F20204206840F008002060206800F0D4
:10289000080001900198C0200290122003900320AC
:1028A000059001F5384002A9FFF720FD606840F46B
:1028B00000106060606800F400100190019806B09C
:1028C00010BD000040F20C0040F23C21C2F20000BA
:1028D000C2F2000100780A681044086070470000E6
:1028E00080B542F20000C4F20200016841F010011C
:1028F0000160032000F07AF80F2000F005F800F0E6
:1029000027F8002080BD000070B540F20C06C2F22E
:10291000000640F214013278C2F200014FF47A73DB
:102920000968B3FBF2F20446B1FBF2F1084600F08D
:1029300063FB0F2C4FF0010508D838B94FF0FF307A
:1029400021460022002500F025F87460284670BD5D
:1029500082B041F21800C4F202000168042241F082
:1029600001010160016801F00101019101994168D3
:1029700041F080514160406800F080500090009824
:102980000420C4F20100016862F31A61016002B020
:102990007047000010B54EF60C5CCEF2000CDCF86F
:1029A0000030C3F3022E8EF00704042C28BF042449
:1029B000BEF103034FF0FF3E0EFA04F438BF0023CC
:1029C000A14399400EFA03F39A43114300F00F021A
:1029D00000F160430901043A03F5644362440028AE
:1029E00048BF02F10C03197010BD00004EF60C51E7
:1029F000CEF200010A684FF6FF031A4060F30A2284
:102A000042F0806040F0FD7008607047002804BF0D
:102A1000012070472DE9F04381B042F20008C4F272
:102A200002080446D8F800000D4600F0070088426E
:102A30000CD2D8F8000020F007002843C8F80000A6
:102A4000D8F8000000F00700A8426CD1206841F2DD
:102A500004098107C4F2020917D5410705D5D9F841
:102A6000001041F4E061C9F80010010705D5D9F85C
:102A7000001041F46051C9F80010D9F80010A268A4
:102A800021F0F0011143C9F80010C00742D1D8F875
:102A9000000000F00700A8420CD9D8F8000020F090
:102AA00007002843C8F80000D8F8000000F007002D
:102AB000A84238D12068410707D5D9F80010E2684C
:102AC00021F4E0611143C9F80010000708D5D9F8D6
:102AD0000000216920F4605040EAC100C9F80000FC
:102AE000D9F8002002F00C00082841F20020C0F2C2
:102AF0007A0051D144F60A03C2F38341C0F60003C1
:102B0000595CD2033CD440F60010C0F23D0048436B
:102B100042E000BF606802280AD001282AD159F893
:102B2000041C890308D4012001B0BDE8F08300BF74
:102B300059F8041C8901F6D5D9F8001021F00301D9
:102B40000843C9F80000FFF7E5FC064641F2883764
:102B5000D9F80000616800F00C00B0EB810F96D04E
:102B6000FFF7D8FC801BB842F2D9032001B0BDE8C2
:102B7000F08300BF59F8041C8907D4D5DCE700BFF7
:102B8000D9F8002044F60803C2F34042C0F600031F
:102B90009A5C4843B0FBF2F0D9F8001044F2F072AE
:102BA000C1F30311C0F60002515C40F2140220FA96
:102BB00001F140F21000C2F200000068C2F200020F
:102BC0001160FFF7A1FE002001B0BDE8F083000016
:102BD00040F2140041F20401C2F20000C4F202010A
:102BE0000068096844F60002C1F30221C0F6000241
:102BF000515CC84070470000002804BF01207047A6
:102C00002DE9F04182B00446007841F20006C00789
:102C1000C4F202060CD0706800F00C00042840F0EA
:102C200081803068800303D56068002800F04E8101
:102C3000207880071BD5706810F00C0F09D07068E1
:102C400000F00C00082840F08B807068C00300F191
:102C500087803068800703D52069012840F03681DD
:102C60003068616920F0F80040EAC10030602078E7
:102C7000000713D4207840072CD4E569002D00F01C
:102C80002081706800F00C00082840F0AF80012D12
:102C900040F00C81012002B0BDE8F081A06900285D
:102CA00000F08C800020C4F242200121C0F8801482
:102CB000FFF730FC054600BF706A800700F1BA805C
:102CC000FFF728FC401B0228F6D9032002B0BDE81C
:102CD000F08100BFF0695FEAC00808D4F06940F0F5
:102CE0008050F061F06900F080500090009847F249
:102CF0000007C4F200073868C0054DD4386840F4B6
:102D000080703860FFF706FC054600BF3868C005D4
:102D100042D4FFF7FFFB401B6428F7D9032002B021
:102D2000BDE8F081706800F00C00082803D17068DD
:102D3000C0033FF576AF6068002800F00981B0F568
:102D4000A02F00F01D81B0F5803F00F01D8130689C
:102D500020F480303060306820F4802017E100BF1C
:102D60002069002840F20000C4F2422000F08C806C
:102D700001210160FFF7CEFB054600BF30688007E8
:102D80003FF56EAFFFF7C6FB401B0228F6D90320C4
:102D900002B0BDE8F08100BFE068002800F09A8032
:102DA000052800F0B180012800F0B280306A20F0E0
:102DB00001003062306A20F00400ACE00020C4F270
:102DC00042200021C0F88014FFF7A4FB054600BF95
:102DD000706A80077FF54EAFFFF79CFB401B02280F
:102DE000F6D9032002B0BDE8F08100BF0027C4F28D
:102DF000422700203866FFF78DFB022D05460DD1D6
:102E00003068800140F1D680FFF784FB401B022828
:102E10004FF00300F4D902B0BDE8F08130688001C2
:102E20004FD5FFF777FB401B02284FF00300F5D981
:102E3000F1E700BF40F21400C2F20000006844F65F
:102E4000D351C1F26201A0FB0101480A019000BF09
:102E500000BF0198411E002801913FF40BAF00BF55
:102E60000198411E002801913FF404AF00BF019872
:102E7000411E002801913FF4FDAE00BF0198411EA4
:102E800000280191E4D1F5E600210160FFF742FB43
:102E9000054600BF306880077FF5E9AEFFF73AFBD3
:102EA000401B02284FF00300F4D9B4E77068216A90
:102EB00000F480328A4209D1616A00F470108842BD
:102EC00004D1002002B0BDE8F08100BF012002B0B3
:102ED000BDE8F081306A20F001003062306A20F0F5
:102EE00004003062FFF716FB054641F2883700BF49
:102EF000306A800722D5FFF70DFB401BB8424FF028
:102F00000300F5D987E700BF306A40F00400306263
:102F1000306A40F001003062FFF7FCFA054641F2EA
:102F2000883700BF306A800708D4FFF7F3FA401BE8
:102F3000B842F7D9032002B0BDE8F081B8F1000F24
:102F40003FF59BAEF06920F08050F06195E600BF40
:102F5000306820F480303060306820F480203060A9
:102F6000FFF7D8FA054600BF306880037FF560AEF2
:102F7000FFF7D0FA401B64284FF00300F4D94AE76A
:102F8000306840F480203060306840F48030306039
:102F9000FFF7C0FA054600BF306880033FF548AE32
:102FA000FFF7B8FA401B6428F6D9032002B0BDE849
:102FB000F08100BF206AB0F5803F05D17168A2683A
:102FC00021F40031114371607168626A21F4741157
:102FD00011430843706001203866FFF79BFA0446EE
:102FE000306880013FF56DAFFFF794FA001B0228AF
:102FF0004FF00300F4D90EE7411E0020B0EB116F33
:103000001CBF012070474EF21002CEF20002516048
:103010004EF62351CEF20001F0230B700721906091
:103020001160704790F83C20012A04BF02207047CD
:10303000B0B501F108053CCDD1E900CE23F47C53B5
:1030400022F470521A432EF4F0431A432CF4E04356
:103050001A4324F4C0431A432A43C96922F4804224
:10306000036811435964002180F83C10BDE8B0406A
:103070000846704790F83C20012A4FF0020236D0F3
:1030800010B580F83D200268D2F804E0D2F808C0FC
:103090000C682EF07003234340F2FF74C4F2000466
:1030A000A24253600ADCB2F1804F13D040F20043D9
:1030B000C4F200039A420DD011E000BF42F6004373
:1030C000C4F201039A4205D040F60003C4F20003A3
:1030D0009A4204D149682CF0800319439160012180
:1030E000002280F83D1080F83C20BDE810401046DA
:1030F0007047000080B586B0014640F60000C4F27B
:103100000100096800F5105300229942049201D091
:1031100006B080BD41F21801C4F202010A6842F013
:1031200004020A60096801F00401019101994FF459
:103130008071029102210391059102A9FFF7D6F84F
:1031400006B080BD90F83C30012B04BF02207047D0
:103150004FEAB202032A31D82DE9F041DFE802F04C
:1031600002346494026842F60045146A136AC4F299
:10317000010523F0010313625368D2F818C0AA4274
:103180008D68D1F800E024F0020444EA05040BD174
:10319000CD68D1E9056723F4407324F00C0425F0D1
:1031A000040533432C433B432CF0730747EA0E07D7
:1031B0005360976149685163146289E001210022DC
:1031C00080F83C2008467047026842F60045146AC1
:1031D000136AC4F2010523F0100313625368D2F896
:1031E00018C0AA428D68D1F800E024F0200444EA17
:1031F00005140FD1CD68D1E905876FF0400624F0A2
:10320000C00406EA05152C4323F4406347EA080589
:1032100043EA85032CF4E64747EA0E27536097619B
:1032200049689163146253E0026842F60045146AEB
:10323000136AC4F2010523F4807313625368D2F851
:103240001CC0AA428D68D1F800E024F4007444EA5E
:1032500005240FD1CD68D1E905872D0240F2FF4644
:1032600024F44064B5432C4323F4405347EA080553
:1032700043EA05132CF0730747EA0E075360D76142
:103280004968D163146223E0026842F60046D2F82E
:1032900020C0136AC4F2010623F4805313625368FA
:1032A000D4690D68D1F808E0B24204D14E6923F424
:1032B000804343EA861324F4E64646EA0526536033
:1032C000D6612CF40057496847EA0E331164136243
:1032D0000021BDE8F041002280F83C2008467047FC
:1032E000002804BF0120704710B5044690F83D0047
:1032F00028B9002084F83C00204600F06FF8022036
:1033000084F83D00206840F2FF730268C4F20003B5
:1033100042F6004C9842C4F2010C15DCB0F1804F2B
:103320001AD040F20041C4F20001884214D0984201
:1033300018DCB0F1804F1DD040F20041C4F2000112
:10334000884217D01AE000BF604505D040F6000162
:10335000C4F200018842EAD1A16822F070020A4357
:103360009842E6DD604505D040F60001C4F2000158
:10337000884203D1216922F440720A43A36922F0F2
:103380008001D4F804E0E268194360450160C2623C
:10339000C0F828E002D16169CCF830100121416108
:1033A0000269D20703D0026922F001020261002003
:1033B00084F8461084F83E1084F83F1084F84010DA
:1033C00084F8411084F8421084F8431084F84410C3
:1033D00084F8451084F83D1010BD0000006842F6E6
:1033E0000041C4F20101884218BF704781B041F228
:1033F0001800C4F20200016841F400610160006835
:1034000000F400600090009801B07047FEE70000F3
:1034100070B50368044653F8140F400711D40E46E4
:10342000481C29D086BB00BF1868400527D4FFF789
:1034300071F8236853F8140F400737D51868400710
:10344000F2D5002070BD00BF18684007F9D4186895
:10345000400514D418684007F3D4186840050ED40A
:1034600018684007EDD41868400508D4186840076C
:103470004FF0000048BF70BD18684005E4D56FF4F8
:1034800080601860042012E0154603E053F8140F22
:103490004007D6D418684005F1D4FFF73BF8401B2D
:1034A0002368B042F2D958694007EFD420200021A8
:1034B0002022216384F83D2084F83E10226C1043C2
:1034C0002064012084F83C1070BD00002DE9F0411B
:1034D000054600681E46144601F47F0201338FB290
:1034E00042D0DDF81880B2F5803F40F08780406917
:1034F0003840C01BB0FA80F04009A04240F0C880BC
:103500004EB924E040693840C01BB0FA80F0400951
:10351000A04240F0BD80FEF7FDFFA0EB0801286847
:10352000B142EFD941693940C91BB1FA81F149096A
:10353000A142E7D19BE000BF40693840C01BB0FA10
:1035400080F04009A0424FF0000040F0A280FEF75A
:10355000E1FF286841693940C91BB1FA81F1490985
:10356000A142E9D183E000BFB2F5803F24D100BF82
:1035700041693940C91BB1FA81F14909A14240F0C2
:10358000878041693940C91BB1FA81F14909A142DB
:1035900040F07E8041693940C91BB1FA81F1490987
:1035A000A14275D141693940C91BB1FA81F149097C
:1035B000A142DDD06CE000BF81693940C91BB1FA7E
:1035C00081F14909A14263D181693940C91BB1FA2E
:1035D00081F14909A1425BD181693940C91BB1FA26
:1035E00081F14909A14253D181693940C91BB1FA1E
:1035F00081F14909A142DFD04AE000BF806938402B
:10360000C01BB0FA80F04009A04241D146B923E086
:1036100080693840C01BB0FA80F04009A04237D121
:10362000FEF778FFA0EB08012868B142F0D9816964
:103630003940C91BB1FA81F14909A142E8D116E02C
:1036400080693840C01BB0FA80F04009A0424FF0BA
:10365000000018BFBDE8F081FEF75CFF28688169B3
:103660003940C91BB1FA81F14909A142E8D10020D2
:103670002021286385F83D1085F83E00296C41F033
:103680002001296485F83C000120BDE8F08100BFDD
:103690000020BDE8F0810000F0B581B0044600686C
:1036A0001D4643698FB203EA0701B94202D10020E7
:1036B00001B0F0BD4169164601323FD049053FD403
:1036C000CEB100BFFEF726FF411B2068B14203D9EF
:1036D00041693940B94215D141693940B942E6D012
:1036E00041694905EED52BE041693940B942DED048
:1036F0004169490524D4FEF70DFF2068416939402E
:10370000B942F1D0202023E041693940B942CED0FE
:103710004169490514D441693940B942C7D041696A
:1037200049050DD441693940B942C0D041694905C4
:1037300006D441693940B942B9D041694905E3D558
:10374000016841F4007101606FF4806141610420FF
:1037500000212022216384F83D2084F83E10226C51
:103760001043206484F83C10012001B0F0BD00003B
:1037700070B50368044653F8140F000611D40E46C2
:10378000481C29D086BB00BF1868400527D4FEF727
:10379000C1FE236853F8140F000637D518680006D9
:1037A000F2D5002070BD00BF18680006F9D4186873
:1037B000400514D418680006F3D4186840050ED4E8
:1037C00018680006EDD41868400508D4186800068B
:1037D0004FF0000048BF70BD18684005E4D56FF495
:1037E00080601860042012E0154603E053F8140FBF
:1037F0000006D6D418684005F1D4FEF78BFE401BB6
:103800002368B042F2D958690006EFD42020002185
:103810002022216384F83D2084F83E10226C10435E
:103820002064012084F83C1070BD0000FEE7000019
:10383000FEE700007047000070470000FFF742B845
:1038400070470000FEE7000070B50446FEF762FE18
:10385000054600BF60686189FEF750FE012809D166
:103860000120FEF72FFDFEF755FE401B9628F1D9EB
:10387000002070BD00260025206821890122FEF766
:1038800043FE00BF00BF00BF00BF00BF00BF00BFBE
:1038900000BF00BF00BF00BF00BF00BF00BF00BF30
:1038A00000BF206821890022FEF72EFE00BF00BF66
:1038B00000BF00BF00BF00BF00BF00BF00BF00BF10
:1038C00000BF00BF00BF00BF00BF00BF60686189CC
:1038D0006D00FEF713FE012808BF0135172E06F113
:1038E0000106C9D320682189012285F40005FEF76D
:1038F0000BFE00BF00BF00BF00BF00BF00BF00BF86
:1039000000BF00BF00BF00BF00BF00BF00BF00BFBF
:1039100000BF206821890022FEF7F6FD00BF00BF2E
:1039200000BF00BF00BF00BF00BF00BF00BF00BF9F
:1039300000BF00BF00BF00BF00BF284600BF70BD72
:103940002DE9F04381B00446007D894630B100BFC7
:103950000120FEF7B7FC207D0028F9D10120B9F144
:10396000000F4FF000084FF000064FF000072075E1
:103970000CD000252046FFF767FF361847EBE077AD
:103980000520FEF79FFC01354D45F3D330463946FF
:103990004A460023FCF778FC84F8148001B0BDE8A7
:1039A000F083000096B0FEF79BFF03AC201D24219E
:1039B000FCF7ECFE022003900120079010200890F5
:1039C000002520460A95FFF717F928B1EFF310807C
:1039D00072B600BFFEE700BF0F20CDE90D050DA8B0
:1039E0000021CDE90F551195FFF710F820B1EFF345
:1039F000108072B6FEE700BF40F27419C2F20009EF
:103A00000120C0F2020009F11408802140F6000AEA
:103A1000C9E9070140460A21C4F2010AFFF790FFF5
:103A2000C9F8040000200024FEF732FA40F2E8163C
:103A3000C2F20006042709F1080031464E22142381
:103A40000097FEF751FA002000210022FEF7B4FB98
:103A500064A10020FEF7F6FB41F218000694C4F2C0
:103A600002000168002241F00401016001684FF08A
:103A7000020B01F004010D910D99016841F008015C
:103A800001600068022100F008000D900D9850467A
:103A9000FEF73AFD03AF012550463946CDE9035400
:103AA0000595FEF723FC50463946CDE903B5CDE92F
:103AB000054BFEF71BFCAAF5344048F2A061C0F2AA
:103AC00001014FF4804286E813003046C6E9034204
:103AD000C6E90544C6E90744FEF722FD20B1EFF32D
:103AE000108072B6FEE700BF0AF51051484640F854
:103AF0002C1F4FF6FF71CDE914440994C0E901442D
:103B0000C0E90314C0E90544FFF7EAFB20B1EFF375
:103B1000108072B6FEE700BF09F12C0514A92846F3
:103B2000FFF7A8FA20B1EFF3108072B6FEE700BFEE
:103B300000240DA9284600221394CDE91144CDE9B3
:103B40000F44CDE90D44FFF7FDFA28B1EFF31080E3
:103B500072B600BFFEE700BF4FF40050089003A903
:103B600028460794CDE90544CDE903440A94FFF7BC
:103B700059FA28B1EFF3108072B600BFFEE700BF1C
:103B80002846FFF7B7FA0025C4F2C82517A603AFE9
:103B900040460A21FFF7D4FED9F80410401A00F07D
:103BA0003BFD294600F076FCC9F80000002000210A
:103BB0000122FEF701FBD9F8000000F03FFC0346AC
:103BC0000C46384610213246CDE90034FCF796FB0E
:103BD00000203946FEF736FB4FF4FA70FEF772FB11
:103BE000D6E700BF5765696768743A00252E3266CC
:103BF000206B67005FEA400C08BF91F0000F4FEAAE
:103C00008C234FEAC12243EA51514FEA1C5018BF9E
:103C100000F5F0404FEA300018BF41F000415FEA84
:103C20006C5C00F02980BCF1FF3F08BF40F0804091
:103C30007047130C06BF12044FF0100C4FF0000C2D
:103C4000130E04BF12020CF1080C130F04BF120173
:103C50000CF1040C930F04BF92000CF1020CD30F73
:103C600004BF52000CF1010C11464FF00002A0F10C
:103C70001F00A0EB0C00704711F0004F08BF704709
:103C800031F000413FF4D5AF0B0C06BF09044FF0F3
:103C9000100C4FF0000C0B0E04BF09020CF1080CC5
:103CA0000B0F04BF09010CF1040C8B0F04BF89003A
:103CB0000CF1020CCB0F04BF49000CF1010CCCF14C
:103CC000200322FA03F341EA030102FA0CF2A0EB0B
:103CD0000C0000F10100704723F07F4720F07F4C7B
:103CE00080EA030000F00040ACEB070303F57C53CF
:103CF00003F1FF032DE9804909B44FEA144324EA94
:103D000003484FEA154B25EA0B4E0FF2042606EB4B
:103D100013273E7803FB0667C7F5000707FB06F687
:103D20004FEAD64606F102064FEA543707FB066C07
:103D3000CCF1005C4FEA1C472CEA074C0CFB06F563
:103D400007FB06F404EB15464FEA961649085FEAAE
:103D5000320234BF00204FF000404FEAD13706FB5B
:103D600007FC4FEA1C4C0CFB0BF7D21B03FB0CF7B8
:103D700061EB07010CFB0EF7B0EB074072EB17424B
:103D80000CFB08F734BFA2EB0742B2EB074261EB32
:103D900017414FEA0C444FEA910706FB07FC4FEA34
:103DA0001C4C0CFB0BF7B0EBC74072EB573203FB1C
:103DB0000CF734BFA2EBC742B2EBC74261EB5731FD
:103DC0000CFB0EF7B0EBC70072EB57720CFB08F759
:103DD00034BFA2EBC702B2EBC70261EB57714FEAE7
:103DE000816141EA92114FEA826242EA90124FEAFF
:103DF000806004EBCC04039F4FEAD13706FB07FC3D
:103E00004FEA1C4C0CFB0BF7D21B03FB0CF761EBCE
:103E100007010CFB0EF7B0EB074072EB17420CFBEF
:103E200008F734BFA2EB0742B2EB074261EB174140
:103E30004FEA8C5504EB9C244FEA910706FB07FCE4
:103E40004FEA1C4C0CFB0BF7B0EBC74072EB573240
:103E500003FB0CF734BFA2EBC742B2EBC74261EBE6
:103E600057310CFB0EF7B0EBC70072EB57720CFB2F
:103E700008F734BFA2EBC702B2EBC70261EB577180
:103E80004FEA816141EA92114FEA826242EA90125E
:103E90004FEA806015EB4C2544F100044FEAD1371E
:103EA00006FB07FC4FEA1C4C0CFB0BF7D21B03FB79
:103EB0000CF761EB07010CFB0EF7B0EB074072EB60
:103EC00017420CFB08F734BFA2EB0742B2EB0742E4
:103ED00061EB17414FEA813141EA92414FEA823268
:103EE00042EA90424FEA80304FEA0C7615EB1C15FF
:103EF00044F1000448EA03434EEA0B484FF0000E39
:103F0000B2EB080C71EB030724BF624639464EEB57
:103F10000E0E4FF0000B0018524149414BEB0B0BBA
:103F2000B2EB080C71EB03077BF1000B24BF624678
:103F300039464EEB0E0E4FF0000B0018524149412E
:103F40004BEB0B0BB2EB080C71EB03077BF1000B97
:103F500024BF624639464EEB0E0E51EA020718BFE7
:103F600046F0010616EB0E7655F1000254F1000101
:103F700003D5BDE88901BDE80088BDE88901BDE839
:103F80000048B619524141EB0101A3F1010370470A
:103F900080807F7E7D7C7B7A797877767675747386
:103FA000727171706F6E6E6D6C6C6B6A6A69686845
:103FB000676666656464636362616160605F5F5EDB
:103FC0005E5D5D5C5C5B5B5A5A5959585857575651
:103FD00056555555545453535252525151505050B6
:103FE0004F4F4F4E4E4D4D4D4C4C4C4B4B4B4A4A08
:103FF0004A4949494848484747474746464645454C
:104000004544444444434343434242424241414184
:104010009C46002B30D477002BD04FEA37071CB5D5
:1040200003B44FF010004FF01001BAF1000F06D0AA
:10403000BCF1000FDCBF40F0080040F008014FF079
:1040400000000FBCBDE810400BF1010BBBF1010FEC
:1040500008BF5FEA170722BF12F1010211F1010147
:104060004FF0004143F1000300F0004043EA00003C
:104070007047F9D35708D0E746EA06464FEA164696
:1040800013F1400F1FDD13F1200FDFBF16430A4667
:10409000002120335B42BED0C3F1200746EA06462A
:1040A0004FEA164602FA07F746EA070622FA03F233
:1040B000C3F1200701FA07F742EA070221FA03F1E8
:1040C0004FF00003A7E746EA020646EA06464FEA33
:1040D000164646EA0106BCBF46EA0646360C4FF0D5
:1040E00000034FF000024FF0000194E72DE9804CEF
:1040F00070B49A46934691E8380007C831EA400CFC
:1041000048BF34EA430C03D5FFF7E6FDFFF780FF15
:10411000F0BCBDE8008C2DE9804C70B49A46934603
:1041200091E8380007C810F0804F08BF13F0804FA7
:1041300003D100F005F8FFF76BFFF0BCBDE8008C81
:1041400020F07F4723F07F4C80EA030000F000401E
:1041500007EB0C03A3F57C53A3F1FE0392F0000FD1
:1041600000F0B38095F0000F00F077802DE9014951
:104170004FEA114021EA00484FEA144624EA064774
:1041800000FB06FC08FB06F607FB08F818EB0648E0
:104190004CEB164C00FB07F718EB07484CEB1740AD
:1041A0004FEA124B22EA0B4E4FEA154625EA064724
:1041B0000BFB06FC0EFB06F607FB0EFE1EEB064E87
:1041C0004CEB164C0BFB07F71EEB074E4CEB174B5B
:1041D00018EB0B0840F1000018EB0E0B58EB000831
:1041E00040F100008F1A4FF000014FF000063CBF75
:1041F000C943661B14BFB5EB040C00213CBFC94387
:10420000F61B4FEA174427EA04454FEA1C472CEAFD
:10421000074C04FB076205FB07F70CFB05F616EBE2
:10422000074642EB174204FB0CFC16EB0C4642EB34
:104230001C421BEB060658EB020241414EEA8E0E71
:1042400046EA9E0601D5BDE80189B619524141EB07
:104250000101A3F10103BDE801894FEA144524EAF5
:1042600005464FEA114721EA074C05FB07F406FB18
:1042700007F70CFB06F111EB074144EB174405FB74
:104280000CFC11EB0C4144EB1C444FEA124722EAB0
:10429000074C05FB07F206FB07F70CFB06F616EBCF
:1042A000074642EB174205FB0CFC16EB0C4642EBB3
:1042B0001C456A1854F1000148BF7047B6195241B5
:1042C00041EB0101A3F10103704795F0000F37D0D6
:1042D0004FEA114221EA02464FEA144724EA074C0A
:1042E00002FB07F106FB07F70CFB06F414EB07448F
:1042F00041EB174102FB0CFC14EB0C4441EB1C415D
:104300004FEA154725EA074C02FB07F506FB07F7BE
:104310000CFB06F616EB074645EB174502FB0CFCBB
:1043200016EB0C4645EB1C42121951F1000148BF37
:104330007047B619524141EB0101A3F101037047E7
:104340004FEA144524EA05464FEA114721EA074C93
:1043500005FB07F106FB07F70CFB06F212EB074221
:1043600041EB174105FB0CFC12EB0C4251EB1C41DD
:104370004FF0000648BF7047921841EB0101A3F1CE
:1043800001037047490050EAC12018BF04204A0DBC
:1043900018BF40F0010040F2FF72B2EB515F08BF5E
:1043A00040F00200012808BF0520704730380A2875
:1043B00001D201207047002070478A68002A02DC81
:1043C0000022FDF7D9B8521E8A604A68C0B2531C59
:1043D0004B6010707047000010B500290AD00878B3
:1043E000002807D005487844FDF788FA002801D056
:1043F000002010BD0248784410BD000056040000A3
:104400004E04000010B500290AD00878002807D013
:1044100005487844FDF772FA002801D0002010BD4D
:104420000248784410BD0000460400003E0400002D
:104430000808A0F500114FEA3101704743004FEA28
:10444000D30C4FEA3C0C43401FBF40070CF16051B6
:1044500013F0FE4F70471CF0006F03D10CF00041C9
:10446000002070470CF0004343EA507040EACC0053
:1044700010B500F0E9F800BF000000924FEA00011B
:10448000FFF7D6BF4FF00041A1F500214FF000002B
:10449000704700004FF47F0C1CEAD0121EBF1CEACC
:1044A000D11392EA0C0F93EA0C0F00F0858090EA8A
:1044B000010F48BF42F4807240F4000C41F4000048
:1044C0002CF07F4120F07F4000B5A2EB0302814237
:1044D0000FF2081CACEB504E9EF800E0C0F100005B
:1044E0004FEA4E0E00FB0EFC38BF49004FEA2C1C71
:1044F0000CFB0EF34FEACE1E0EEB635E4FEA112C5F
:104500000EFB0CFC4FEAC1214FEA1C5300FB0311C8
:1045100002F5FA024FEA112C0EFB0CFC4FEA0131B6
:104520004FEADC4C00FB0C1142EB2242C14228BF97
:1045300009184CEB03335DF804EB10EB410143EB3E
:10454000C250B2F57C0F38BF704729D512F0F00F7A
:104550001CBF00F1C04000F0004070470081828322
:104560008485868788898B8C8D8E8F919293959682
:1045700097999A9C9D9FA0A2A3A5A7A8AAACAEB00C
:10458000B2B3B5B7B9BCBEC0C2C5C7C9CCCED1D411
:10459000D7D9DCDFE2E6E9ECF0F3F7FAFE00000041
:1045A0004FEA400C0CF1807CBCF17E4F28BF704775
:1045B000B0F1C04000F08EB80CEAD11390EA010FC0
:1045C00048BF42F48072624538BF634507D213F496
:1045D0007F0F16D080EA010000F00040704710B550
:1045E00000F032F8097EFC3E00F005B880EA0100D8
:1045F00000F00040704780EA010000F0004000F049
:1046000069B812F47F0F04BF0248704780EA0100C6
:1046100000F060B80000C07F10F0004148BF404289
:10462000B0FA80F310FA03F2C3F19D030BD051EA04
:10463000C35101EB1220530638BF704700F101004F
:1046400008BF20F0010070470EF1020E2EF0030E9D
:104650005EF8044B244204D44FEA4102B2F17F4F8A
:1046600011D84FEA4003B3F17F4F0CD80ED14FEA77
:10467000D07C0CEB4C0C0CF1020CB2F17F4F08BF5C
:104680004CEBD17C04E04FF0080C01E04FEAD17C08
:104690000CEB4C0324FA03F404F00704B4F1040C0B
:1046A00006D20EEB840CBDE810404CF0010C6047C4
:1046B000DFE80CF0070802024FF00040A0F5800090
:1046C00010BD0846420018BFD2F1807288BF00F0CA
:1046D000004010BDFF2141EAD050C0057047FCF7F3
:1046E00028BAFCF75DBB00000000000000000000DD
:1046F0003031323334353637383941424344454618
:104700004030580030313233343536373839616211
:104710006364656640307800040000080000000013
:104720000000000200010000103031323334353611
:1047300037383961626364656678700030313233CE
:1047400034353637383941424344454658500000E5
:1047500002400000000000A0000000000540000032
:10476000000000C8000000000C4000000000409C59
:1047700000000000194000000020BCBE0000000046
:1047800034400000BFC91B8E00000004B54000008B
:10479000504BCFD06607E2CF010000006C41000013
:1047A0003E8251AADFEEA73401000000D94200008A
:1047B000DCB5A0E23A301F97FFFFFFFFB4450000D1
:1047C000FD25A0C8E9A3C14FFFFFFFFFFF3F000089
:1047D0000000008000000000FF3F0000000000809B
:1047E000000000003A7474003A7474003A74740063
:1047F0000000000000000000010203040607080991
:104800000000000001020304010202030405060780
:1048100008090A0B0C0D0E0F101000006849000863
:104820000000002018000000500100088049000826
:104830001800002028080000700100081C0000007B
:1048400043000000F8FFFFFF0C0000000E00000016
:104850000F0000002E0000001001000043000000C7
:10486000F8FFFFFF00404040404040404040414191
:104870004141414040404040404040404040404035
:1048800040404040400502020202020202020202CF
:1048900002020202022020202020202020202002CC
:1048A000020202020202909090909090101010105C
:1048B00010101010101010101010101010101010F8
:1048C000020202020202888888888888080808088C
:1048D0000808080808080808080808080808080858
:1048E0000202020240000000000000000000000080
:1048F00000000000000000000000000000000000B8
:1049000000000000000000000000000000000000A7
:104910000000000000000000000000000000000097
:104920000000000000000000000000000000000087
:104930000000000000000000000000000000000077
:104940000000000000000000000000000000000067
:104950000000000000000000000000000000000057
:104960000000000000000000000000000000000047
:1049700000000000010000001000000000127A009A
:04000005080000ED02
:00000001FF
