:020000040800F2
:1000000040070020B5010008C51D0008A11900081F
:10001000C11D000821040008D91D000800000000CF
:10002000000000000000000000000000CD1D0008DE
:100030005508000800000000C91D0008D11D000877
:10004000CF010008CF010008CF010008CF01000850
:10005000CF010008CF010008CF010008CF01000840
:10006000CF010008CF010008CF010008CF01000830
:10007000CF010008CF010008CF010008CF01000820
:10008000CF010008CF010008CF010008CF01000810
:10009000CF010008CF010008CF010008CF01000800
:1000A000CF010008CF010008CF010008CF010008F0
:1000B000CF010008CF010008CF010008CF010008E0
:1000C000CF010008CF010008CF010008CF010008D0
:1000D000CF010008CF010008CF010008CF010008C0
:1000E000CF010008CF010008CF01000800F002F89E
:1000F00000F050F814A696E8000CB244B344DA4578
:1001000001D100F047F8BAE80F000FA696E83000DA
:10011000A5EB040504EB0607AAEB0704A7F101070A
:100120004FEA15154FEA3414A4F10104AC4201D38F
:1001300000F030F813F0010F18BFFB1A43F0010371
:1001400000F001F8DBE71847A0220000C022000001
:10015000103A24BF78C878C1FAD8520724BF30C8F3
:1001600030C144BF04680C60704700007047000055
:100170000023002400250026103A28BF78C1FBD8B0
:10018000520728BF30C148BF0B6070471FB51FBD65
:1001900010B510BD00F00AF91146FFF7F7FF01F0A6
:1001A000CBFE00F028F903B4FFF7F2FF03BC00F028
:1001B0002FF900000948804709480047FEE7FEE79D
:1001C000FEE7FEE7FEE7FEE7FEE7FEE7FEE7FEE707
:1001D00004480549054A064B70470000D51D000834
:1001E000ED000008400100204007002040030020EF
:1001F0004003002053EA020C23D010B54C1084EACF
:10020000530404D54042C1F1000138BF491E1B42CE
:1002100004D55242C3F1000338BF5B1E00F04EF814
:1002200014F0804F04D04042C1F1000138BF491E94
:1002300014F0004F04D05242C3F1000338BF5B1EDC
:1002400010BD13B540424FF0000070EB0104B8BF81
:10025000012001F0004100281CBF6FF000414FF069
:10026000FF30AFF300801CBD4FF0000200B5134615
:1002700094469646203922BFA0E80C50A0E80C50C6
:10028000B1F12001BFF4F7AF090728BFA0E80C5077
:1002900048BF0CC05DF804EB890028BF40F8042B70
:1002A00008BF704748BF20F8022B11F0804F18BFDD
:1002B00000F8012B704770477047704753EA020CF3
:1002C00000F069802DE9F04B4FF00006002B1FBFB6
:1002D000B3FA83F503FA05F424FA05F65E4012BF7B
:1002E0001643B2FA82F502FA05F4C5F120051EBFE5
:1002F00022FA05FC44EA0C04203556EA044C4FEA85
:10030000144418BF641C4FF000084FF000099042DD
:1003100071EB030C39D3002919BFB1FA81F701FA47
:1003200007F6B0FA80F700FA07F6C7F120071EBFFC
:1003300020FA07FC46EA0C062037B6FBF4FCA7EBD4
:100340000507103F07F01F0BCBF120062CFA06F62D
:100350000CFA0BFB44BFB3460026202FA4BF5E4619
:100360004FF0000B5BEA060C08BF4FF0010B19EBD6
:100370000B0948EB0608ABFB027C06FB02CC0BFB2F
:1003800003CCC01B71EB0C01C1E70B460246414692
:100390004846BDE8F08B13B5084318BF4FF0FF3057
:1003A0000146AFF30080BDE81C407047754600F081
:1003B0002BF8AE4605006946534620F007008546F7
:1003C00018B020B5FFF704FFBDE820404FF000064D
:1003D0004FF000074FF000084FF0000BAC46ACE8C0
:1003E000C009ACE8C009ACE8C009ACE8C00921F01C
:1003F00007018D46704710B50446AFF300802046D4
:10040000BDE81040FFF7CFBE004870471000002045
:1004100001491820ABBEFEE726000200704700002D
:10042000FEE7000070B582B00446C07A18260028A6
:1004300018BF01204FEAC00505F1040008BF1026CF
:100440008DF80400012000F007FA301D8DF8060039
:1004500001208DF8055000F0FFF9206821798DF812
:1004600007604FF47A7601AA0423009600F0D4FBCB
:10047000052000F0F1F902B070BD00002DE9F04157
:1004800082B0044608982160A07140F60640C2F68A
:100490001400C4F807000820E07232202271637152
:1004A00000F0DAF9E07A3825002808BF30252E1D43
:1004B000012038278DF8046000F0CEF901208DF876
:1004C00005508DF8066000F0C7F9206821794FF4D7
:1004D0007A7801AA04238DF80750CDF8008000F047
:1004E0009BFBE07A3826002808BF3026351D012006
:1004F0008DF8045000F0B0F901208DF805608DF8FA
:10050000065000F0A9F92068217901AA04238DF88A
:100510000760CDF8008000F07FFB052000F09CF91B
:10052000E07A2825002808BF302707F1040008BF1B
:1005300020258DF804000120282600F08DF9281DC3
:100540008DF8060001208DF8057000F085F920680F
:10055000217901AA04238DF80750CDF8008000F01E
:100560005BFB052000F078F9E07A2825002818BF09
:10057000012008BF2025C700281D8DF80400012098
:1005800000F06AF9381D8DF8060001208DF805503D
:1005900000F062F92068217901AA04238DF8077020
:1005A000CDF8008000F038FB052000F055F9E07927
:1005B000E27A010120F00F0501F10807002A14BFBB
:1005C00008350701281D8DF80400012000F044F9CA
:1005D000381D8DF8060001208DF8055000F03CF91B
:1005E0002068217901AA04238DF80770CDF80080D6
:1005F00000F012FB207AE27A010120F00F0501F1F0
:100600000807002A14BF08350701281D8DF80400CB
:10061000012000F021F9381D8DF8060001208DF829
:10062000055000F019F92068217901AA04238DF8FA
:100630000770CDF8008000F0EFFA607AE27A0101ED
:1006400020F00F0501F10807002A14BF0835070143
:10065000281D8DF80400012000F0FEF8381D8DF8EB
:10066000060001208DF8055000F0F6F82068217989
:1006700001AA04238DF80770CDF8008000F0CCFAB1
:10068000A07AE27A010120F00F0501F10807002AA3
:1006900014BF08350701281D8DF80400012000F063
:1006A000DBF8381D8DF8060001208DF8055000F0AC
:1006B000D3F82068217901AA04238DF80770CDF8BA
:1006C000008000F0A9FAE07A1827002818BF01205E
:1006D0004FEAC00505F1040008BF10278DF804009B
:1006E000012000F0B9F8381D8DF8060001208DF8C2
:1006F000055000F0B1F82068217901AA04238DF893
:100700000770CDF8008000F087FAE07A00280CBF6F
:1007100020260120C500281D8DF80400012000F0CE
:100720009BF8301D8DF8060001208DF8055000F073
:1007300093F82068217901AA04238DF80760CDF889
:10074000008000F069FA02B0BDE8F08170B582B0B7
:1007500004464079A379884298BF411E934298BFCE
:100760005A1ED0B2032805D8DFE800F009020608B7
:10077000403104E0002102E0143100E054310A016C
:10078000E37A01F0700002F108056FF07702002BA8
:1007900008BF6FF07F0202EB000606F1040008BFFD
:1007A0000D018DF80400012000F056F8281D8DF889
:1007B000060001208DF8056000F04EF820682179D0
:1007C0004FF47A7601AA04238DF80750009600F0C2
:1007D00023FA02B070BD00000A78002A08BF7047F3
:1007E0002DE9F04782B082464E1E4FF47A780DF123
:1007F000040900BF11019AF80B3022F00F0001F13B
:100800000807002B14BF08301701451C05308DF870
:10081000040001207C1C00F01FF8781D8DF80600F4
:1008200001208DF8055000F017F8DAF800009AF86A
:1008300004104A4604238DF80740CDF8008000F0EC
:10084000EBF9B2780136002AD4D102B0BDE8F04706
:100850007047000070470000B0B5044600F024F96E
:10086000054640F20000C2F200000078611C18BF8B
:10087000044400BF00F018F9401BA042FAD3B0BDF9
:100880002DE9F04F82B00E68002E00F0FD8041F29D
:100890000042C4F20102042340F2004E904208BF1D
:1008A00003234FF6FF7CC4F2010E009300240123C2
:1008B000C1F2100C4FF0000A4FF0000944E000BFF5
:1008C000012704F00C030F229A402BEA020207FAD8
:1008D00003F34FEA9A051A4346F825204E6840F282
:1008E0000C45F202DEF8082054BF22EA080242EA70
:1008F0000802C4F20105CEF808202A68B30254BFEA
:1009000022EA080242EA08022A60B303DEF8042061
:1009100054BF22EA080242EA0802F303CEF8042098
:10092000DEF800204FF0010354BF22EA080242EA39
:100930000802CEF800200E680AF1010A36FA0AF21F
:1009400004F1040400F0A08003FA0AFB16EA0B0885
:10095000F1D04E68664511DC122E55D8DFE806F05E
:10096000340A4448545454545454545454545454CD
:10097000544C5000D1F80C9046E000BF4FF6FF7287
:10098000C1F2210296420FDC0022C1F2110296420E
:100990001AD00022C1F21202964215D00022C1F2F2
:1009A0002102964210D02FE00022C1F2220296428C
:1009B0000AD00022C1F23102964205D00022C1F2D3
:1009C0003202964220D100BF8A684AB1012A14BF80
:1009D000C0F814B0C0F810B04FF0080914E000BF20
:1009E0004FF0040910E000BFCA6802F108090BE0EB
:1009F0004FF0000908E000BFCA6802F1040903E0F3
:100A0000CA6802F10C0900BF22460646B8F5807F8D
:100A100024BF203A043637680F25954027EA05059C
:100A200009FA02F22A433260CA79D2067FF583AF0F
:100A300041F21803C4F202031A68AEF57E7642F062
:100A400001021A601A6802F001020192019A2AF06A
:100A5000030256F802B040F60002C4F201029042CE
:100A600010D040F60042C4F2010290423FF428AF99
:100A700041F20002C4F20102009F904208BF022727
:100A80001FE700BF00271CE702B0BDE8F08F0000A1
:100A90008068084018BF012070470000002A08BF86
:100AA000090401617047000040F23810C2F20000F2
:100AB00000687047002804BF01207047F0B581B07E
:100AC000044690F83D0028B9002084F83C002046F8
:100AD00000F090F9242084F83D002068016821F09E
:100AE00001010160016841F400410160016821F4E5
:100AF0000041016000F036FB636848F2A16CC0F26F
:100B0000010C40F60011C0F23D0163453CBF48F2C4
:100B10008041C0F21E01884202D2012001B0F0BD26
:100B20004DF68361C4F21B31A0FB01122168970CC2
:100B3000D1F804E04FF496762EF03F0545EA924551
:100B40004D60774348F638160D6AC0F24106A7FBA0
:100B5000067625F03F07634538BF960C721C3A4372
:100B60000A62CA6948F2A0664CF6FF77C0F2010635
:100B7000B34222EA07020BD801385B00B0FBF3F066
:100B800001306FF31F30042898BF04201BE000BF22
:100B9000A768013857B119277B43B0FBF3F0013048
:100BA0006FF31F3070B100F5804007E003EB4303A3
:100BB000B0FBF3F001306FF31F3018B100F50040C7
:100BC00001E000BF01201043C8610868D4E9072391
:100BD00020F0C000104318430860886848F2FF32D4
:100BE00004F10C0790438CCF18431043A66988602A
:100BF000C86820F0FF0038433043C860086840F000
:100C00000100086000202021206484F83D1020634A
:100C100084F83E0001B0F0BD2DE9F04383B01E46DC
:100C2000174689460446FFF73FFF94F83D102029F8
:100C300024D10546206800BF816989071AD5FFF7CE
:100C400033FF411B20681A29F6D381698907F3D540
:100C500000202021206384F83D1084F83E00216CA0
:100C600041F02001216484F83C00022003B0BDE87B
:100C7000F08300BF94F83C10012903D1022003B097
:100C8000BDE8F083012184F83C100168C90703D155
:100C9000016841F001010160016840F2020821F49D
:100CA00000610160212184F83D10102184F83E107C
:100CB0000021216467626685618DC0F2010821858B
:100CC000A8F10211E162E16A0A9E11F5803F18BFA6
:100CD00001291DD1016841F48071016020464FF067
:100CE000011100223346009500F0BAFE50B1206891
:100CF0000068C00544BF4FF400702064012003B0B9
:100D0000BDE8F0832069B0F5804F07D1FE2015E0E3
:100D10000829DFD0216B1229DCD0DFE7062000EAAA
:100D2000D9102168F030086108F1060120463246EA
:100D30002B4600F07BFF0028E0D1FF20216800EA6D
:100D4000090008612046414632462B4600F06EFFFE
:100D50000028D3D100200290206841690291806967
:100D60000290029806E000BF204631462A4600F075
:100D700019FE18BB208D68B3204631462A4600F084
:100D8000C1FFD8B9606A2168024612F8013B0B61C5
:100D90006262628D013A6285228D531E23854F69FE
:100DA0007F07E1D51B04DFD0437802300B6160621E
:100DB000608D01386085901E2085D5E7206C042861
:100DC0009CD12068016841F400710160012003B0EA
:100DD000BDE8F0832068016841F4007101602020C3
:100DE00084F83D00002084F83E0084F83C0003B005
:100DF000BDE8F08310B586B045F200410068C4F24A
:100E0000000100228842049202D006B010BD00BF4B
:100E100041F21804C4F20204206840F00800206087
:100E2000206800F0080001900198C0200290122074
:100E300003900320059001F5384002A9FFF720FD3B
:100E4000606840F400106060606800F40010019079
:100E5000019806B010BD000040F2000040F23811C9
:100E6000C2F20000C2F2000100780A681044086073
:100E70007047000080B542F20000C4F20200016831
:100E800041F010010160032000F07AF80F2000F01B
:100E900005F800F027F8002080BD000070B540F292
:100EA0000006C2F2000640F208013278C2F20001E8
:100EB0004FF47A730968B3FBF2F20446B1FBF2F126
:100EC000084600F063FB0F2C4FF0010508D838B935
:100ED0004FF0FF3021460022002500F025F8746015
:100EE000284670BD82B041F21800C4F202000168C9
:100EF000042241F001010160016801F0010101914A
:100F00000199416841F080514160406800F0805093
:100F1000009000980420C4F20100016862F31A6195
:100F2000016002B07047000010B54EF60C5CCEF2C6
:100F3000000CDCF80030C3F3022E8EF00704042C02
:100F400028BF0424BEF103034FF0FF3E0EFA04F461
:100F500038BF0023A14399400EFA03F39A4311438B
:100F600000F00F0200F160430901043A03F5644305
:100F70006244002848BF02F10C03197010BD000044
:100F80004EF60C51CEF200010A684FF6FF031A40EC
:100F900060F30A2242F0806040F0FD700860704704
:100FA000002804BF012070472DE9F04381B042F2D0
:100FB0000008C4F202080446D8F800000D4600F00C
:100FC000070088420CD2D8F8000020F00700284320
:100FD000C8F80000D8F8000000F00700A8426CD163
:100FE000206841F204098107C4F2020917D54107BC
:100FF00005D5D9F8001041F4E061C9F800100107E7
:1010000005D5D9F8001041F46051C9F80010D9F89D
:101010000010A26821F0F0011143C9F80010C007C8
:1010200042D1D8F8000000F00700A8420CD9D8F847
:10103000000020F007002843C8F80000D8F800009E
:1010400000F00700A84238D12068410707D5D9F839
:101050000010E26821F4E0611143C9F800100007B4
:1010600008D5D9F80000216920F4605040EAC10099
:10107000C9F80000D9F8002002F00C00082841F25D
:101080000020C0F27A0051D142F2D833C2F383413A
:10109000C0F60003595CD2033CD440F60010C0F205
:1010A0003D00484342E000BF606802280AD00128A2
:1010B0002AD159F8041C890308D4012001B0BDE8E5
:1010C000F08300BF59F8041C8901F6D5D9F8001047
:1010D00021F003010843C9F80000FFF7E5FC0646CC
:1010E00041F28837D9F80000616800F00C00B0EBDD
:1010F000810F96D0FFF7D8FC801BB842F2D90320AD
:1011000001B0BDE8F08300BF59F8041C8907D4D5AD
:10111000DCE700BFD9F8002042F2D633C2F34042E8
:10112000C0F600039A5C4843B0FBF2F0D9F8001017
:1011300042F2BE32C1F30311C0F60002515C40F22C
:10114000080220FA01F140F20400C2F20000006837
:10115000C2F200021160FFF7A1FE002001B0BDE85D
:10116000F083000040F2080041F20401C2F20000E6
:10117000C4F202010068096842F2CE32C1F30221D2
:10118000C0F60002515CC84070470000002804BF50
:10119000012070472DE9F04182B00446007841F209
:1011A0000006C007C4F202060CD0706800F00C0004
:1011B000042840F081803068800303D560680028EF
:1011C00000F04E81207880071BD5706810F00C0F5E
:1011D00009D0706800F00C00082840F08B8070681F
:1011E000C00300F187803068800703D5206901289B
:1011F00040F036813068616920F0F80040EAC100B3
:1012000030602078000713D4207840072CD4E5699B
:10121000002D00F02081706800F00C00082840F0DC
:10122000AF80012D40F00C81012002B0BDE8F081BB
:10123000A069002800F08C800020C4F24220012127
:10124000C0F88014FFF730FC054600BF706A8007C5
:1012500000F1BA80FFF728FC401B0228F6D90320D2
:1012600002B0BDE8F08100BFF0695FEAC00808D4B1
:10127000F06940F08050F061F06900F0805000901B
:10128000009847F20007C4F200073868C0054DD443
:10129000386840F480703860FFF706FC054600BFF0
:1012A0003868C00542D4FFF7FFFB401B6428F7D91C
:1012B000032002B0BDE8F081706800F00C0008283F
:1012C00003D17068C0033FF576AF6068002800F076
:1012D0000981B0F5A02F00F01D81B0F5803F00F02E
:1012E0001D81306820F480303060306820F4802028
:1012F00017E100BF2069002840F20000C4F242203C
:1013000000F08C8001210160FFF7CEFB054600BF95
:10131000306880073FF56EAFFFF7C6FB401B022821
:10132000F6D9032002B0BDE8F08100BFE0680028D4
:1013300000F09A80052800F0B180012800F0B2800A
:10134000306A20F001003062306A20F00400ACE026
:101350000020C4F242200021C0F88014FFF7A4FB53
:10136000054600BF706A80077FF54EAFFFF79CFB14
:10137000401B0228F6D9032002B0BDE8F08100BF6F
:101380000027C4F2422700203866FFF78DFB022DAC
:1013900005460DD13068800140F1D680FFF784FB0F
:1013A000401B02284FF00300F4D902B0BDE8F081E1
:1013B000306880014FD5FFF777FB401B02284FF0C4
:1013C0000300F5D9F1E700BF40F20800C2F20000C7
:1013D000006844F6D351C1F26201A0FB0101480A42
:1013E000019000BF00BF0198411E002801913FF409
:1013F0000BAF00BF0198411E002801913FF404AFDC
:1014000000BF0198411E002801913FF4FDAE00BFCE
:101410000198411E00280191E4D1F5E60021016008
:10142000FFF742FB054600BF306880077FF5E9AE55
:10143000FFF73AFB401B02284FF00300F4D9B4E752
:101440007068216A00F480328A4209D1616A00F42E
:101450007010884204D1002002B0BDE8F08100BFC6
:10146000012002B0BDE8F081306A20F00100306256
:10147000306A20F004003062FFF716FB054641F2A7
:10148000883700BF306A800722D5FFF70DFB401B6D
:10149000B8424FF00300F5D987E700BF306A40F04B
:1014A00004003062306A40F001003062FFF7FCFA5D
:1014B000054641F2883700BF306A800708D4FFF73D
:1014C000F3FA401BB842F7D9032002B0BDE8F0811F
:1014D000B8F1000F3FF59BAEF06920F08050F0614D
:1014E00095E600BF306820F480303060306820F42A
:1014F00080203060FFF7D8FA054600BF30688003CF
:101500007FF560AEFFF7D0FA401B64284FF0030070
:10151000F4D94AE7306840F480203060306840F405
:1015200080303060FFF7C0FA054600BF30688003A6
:101530003FF548AEFFF7B8FA401B6428F6D9032000
:1015400002B0BDE8F08100BF206AB0F5803F05D150
:101550007168A26821F40031114371607168626A98
:1015600021F4741111430843706001203866FFF7BD
:101570009BFA0446306880013FF56DAFFFF794FA9F
:10158000001B02284FF00300F4D90EE7411E002093
:10159000B0EB116F1CBF012070474EF21002CEF26B
:1015A000000251604EF62351CEF20001F0230B7081
:1015B000072190601160704790F83C20012A04BF19
:1015C00002207047B0B501F108053CCDD1E900CE4D
:1015D00023F47C5322F470521A432EF4F0431A433E
:1015E0002CF4E0431A4324F4C0431A432A43C96944
:1015F00022F48042036811435964002180F83C10B2
:10160000BDE8B0400846704790F83C20012A4FF0F2
:10161000020236D010B580F83D200268D2F804E00E
:10162000D2F808C00C682EF07003234340F2FF7418
:10163000C4F20004A24253600ADCB2F1804F13D01E
:1016400040F20043C4F200039A420DD011E000BF03
:1016500042F60043C4F201039A4205D040F600036B
:10166000C4F200039A4204D149682CF08003194364
:1016700091600121002280F83D1080F83C20BDE8F7
:10168000104010467047000080B586B0014640F615
:101690000000C4F20100096800F5105300229942CD
:1016A000049201D006B080BD41F21801C4F20201DB
:1016B0000A6842F004020A60096801F0040101911D
:1016C00001994FF48071029102210391059102A9C1
:1016D000FFF7D6F806B080BD90F83C30012B04BF70
:1016E000022070474FEAB202032A31D82DE9F041B7
:1016F000DFE802F002346494026842F60045146A9E
:10170000136AC4F2010523F0010313625368D2F88F
:1017100018C0AA428D68D1F800E024F0020444EA1F
:1017200005040BD1CD68D1E9056723F4407324F09B
:101730000C0425F0040533432C433B432CF0730782
:1017400047EA0E075360976149685163146289E064
:101750000121002280F83C2008467047026842F6CA
:101760000045146A136AC4F2010523F010031362E2
:101770005368D2F818C0AA428D68D1F800E024F06E
:10178000200444EA05140FD1CD68D1E905876FF034
:10179000400624F0C00406EA05152C4323F44063F8
:1017A00047EA080543EA85032CF4E64747EA0E2793
:1017B0005360976149689163146253E0026842F68E
:1017C0000045146A136AC4F2010523F4807313629E
:1017D0005368D2F81CC0AA428D68D1F800E024F406
:1017E000007444EA05240FD1CD68D1E905872D02A4
:1017F00040F2FF4624F44064B5432C4323F44053A5
:1018000047EA080543EA05132CF0730747EA0E0779
:101810005360D7614968D163146223E0026842F6DD
:101820000046D2F820C0136AC4F2010623F48053A4
:1018300013625368D4690D68D1F808E0B24204D14C
:101840004E6923F4804343EA861324F4E64646EACD
:1018500005265360D6612CF40057496847EA0E33D9
:10186000116413620021BDE8F041002280F83C20A1
:1018700008467047002804BF0120704710B5044691
:1018800090F83D0028B9002084F83C00204600F084
:101890006FF8022084F83D00206840F2FF73026870
:1018A000C4F2000342F6004C9842C4F2010C15DC6D
:1018B000B0F1804F1AD040F20041C4F200018842DA
:1018C00014D0984218DCB0F1804F1DD040F2004196
:1018D000C4F20001884217D01AE000BF604505D06D
:1018E00040F60001C4F200018842EAD1A16822F06A
:1018F00070020A439842E6DD604505D040F60001DB
:10190000C4F20001884203D1216922F440720A43E3
:10191000A36922F08001D4F804E0E268194360452D
:101920000160C262C0F828E002D16169CCF83010D1
:10193000012141610269D20703D0026922F001024C
:101940000261002084F8461084F83E1084F83F10AD
:1019500084F8401084F8411084F8421084F8431051
:1019600084F8441084F8451084F83D1010BD000040
:10197000006842F60041C4F20101884218BF704776
:1019800081B041F21800C4F20200016841F4006124
:101990000160006800F400600090009801B070479A
:1019A000FEE7000070B50368044653F8140F4007C3
:1019B00011D40E46481C29D086BB00BF18684005CC
:1019C00027D4FFF771F8236853F8140F400737D571
:1019D00018684007F2D5002070BD00BF18684007A6
:1019E000F9D41868400514D418684007F3D418686F
:1019F00040050ED418684007EDD41868400508D497
:101A0000186840074FF0000048BF70BD18684005D7
:101A1000E4D56FF480601860042012E0154603E0FE
:101A200053F8140F4007D6D418684005F1D4FFF7D7
:101A30003BF8401B2368B042F2D958694007EFD405
:101A4000202000212022216384F83D2084F83E10CC
:101A5000226C10432064012084F83C1070BD00000B
:101A60002DE9F041054600681E46144601F47F0248
:101A700001338FB242D0DDF81880B2F5803F40F0DC
:101A8000878040693840C01BB0FA80F04009A0420E
:101A900040F0C8804EB924E040693840C01BB0FA1D
:101AA00080F04009A04240F0BD80FEF7FDFFA0EBB2
:101AB00008012868B142EFD941693940C91BB1FA20
:101AC00081F14909A142E7D19BE000BF406938405C
:101AD000C01BB0FA80F04009A0424FF0000040F077
:101AE000A280FEF7E1FF286841693940C91BB1FABD
:101AF00081F14909A142E9D183E000BFB2F5803FFD
:101B000024D100BF41693940C91BB1FA81F14909AB
:101B1000A14240F0878041693940C91BB1FA81F187
:101B20004909A14240F07E8041693940C91BB1FAA0
:101B300081F14909A14275D141693940C91BB1FA06
:101B400081F14909A142DDD06CE000BF81693940D3
:101B5000C91BB1FA81F14909A14263D181693940B8
:101B6000C91BB1FA81F14909A1425BD181693940B0
:101B7000C91BB1FA81F14909A14253D181693940A8
:101B8000C91BB1FA81F14909A142DFD04AE000BF87
:101B900080693840C01BB0FA80F04009A04241D1B2
:101BA00046B923E080693840C01BB0FA80F0400994
:101BB000A04237D1FEF778FFA0EB08012868B142B8
:101BC000F0D981693940C91BB1FA81F14909A142B3
:101BD000E8D116E080693840C01BB0FA80F04009B7
:101BE000A0424FF0000018BFBDE8F081FEF75CFF97
:101BF000286881693940C91BB1FA81F14909A142BC
:101C0000E8D100202021286385F83D1085F83E00AA
:101C1000296C41F02001296485F83C000120BDE8D1
:101C2000F08100BF0020BDE8F0810000F0B581B078
:101C3000044600681D4643698FB203EA0701B942B2
:101C400002D1002001B0F0BD4169164601323FD0FB
:101C500049053FD4CEB100BFFEF726FF411B2068E7
:101C6000B14203D941693940B94215D1416939407E
:101C7000B942E6D041694905EED52BE041693940CA
:101C8000B942DED04169490524D4FEF70DFF206832
:101C900041693940B942F1D0202023E041693940FF
:101CA000B942CED04169490514D441693940B9429D
:101CB000C7D0416949050DD441693940B942C0D006
:101CC0004169490506D441693940B942B9D04169F1
:101CD0004905E3D5016841F4007101606FF480614A
:101CE0004161042000212022216384F83D2084F8F2
:101CF0003E10226C1043206484F83C10012001B097
:101D0000F0BD000070B50368044653F8140F0006D8
:101D100011D40E46481C29D086BB00BF1868400568
:101D200027D4FEF7C1FE236853F8140F000637D5F9
:101D300018680006F2D5002070BD00BF18680006C4
:101D4000F9D41868400514D418680006F3D418684C
:101D500040050ED418680006EDD41868400508D474
:101D6000186800064FF0000048BF70BD18684005B5
:101D7000E4D56FF480601860042012E0154603E09B
:101D800053F8140F0006D6D418684005F1D4FEF7B6
:101D90008BFE401B2368B042F2D958690006EFD48D
:101DA000202000212022216384F83D2084F83E1069
:101DB000226C10432064012084F83C1070BD0000A8
:101DC000FEE70000FEE700007047000070470000DB
:101DD000FFF742B870470000FEE7000070B5044608
:101DE000FEF762FE054600BF60686189FEF750FE9F
:101DF000012809D10120FEF72FFDFEF755FE401BFB
:101E00009628F1D9002070BD002600252068218980
:101E10000122FEF743FE00BF00BF00BF00BF00BFAE
:101E200000BF00BF00BF00BF00BF00BF00BF00BFBA
:101E300000BF00BF00BF206821890022FEF72EFEF0
:101E400000BF00BF00BF00BF00BF00BF00BF00BF9A
:101E500000BF00BF00BF00BF00BF00BF00BF00BF8A
:101E6000606861896D00FEF713FE012808BF013527
:101E7000172E06F10106C9D320682189012285F4B5
:101E80000005FEF70BFE00BF00BF00BF00BF00BF94
:101E900000BF00BF00BF00BF00BF00BF00BF00BF4A
:101EA00000BF00BF00BF206821890022FEF7F6FDB9
:101EB00000BF00BF00BF00BF00BF00BF00BF00BF2A
:101EC00000BF00BF00BF00BF00BF00BF00BF28466B
:101ED00000BF70BD2DE9F04381B00446007D894606
:101EE00030B100BF0120FEF7B7FC207D0028F9D1FA
:101EF0000120B9F1000F4FF000084FF000064FF03D
:101F0000000720750CD000252046FFF767FF361824
:101F100047EBE0770520FEF79FFC01354D45F3D3F5
:101F2000304639464A460023FEF764F984F81480A7
:101F300001B0BDE8F083000096B0FEF79BFF02AC55
:101F4000201D2421FEF790F9022002900120069026
:101F500010200790002520460995FFF717F928B1B2
:101F6000EFF3108072B600BFFEE700BF0F20CDE98F
:101F70000D050DA80021CDE90F551195FFF710F8BB
:101F800020B1EFF3108072B6FEE700BF40F2700898
:101F9000C2F200080120C0F2020008F114098021F9
:101FA00040F6000BC8E9070148460A21C4F2010BBC
:101FB000FFF790FF40F2E40708F10805C2F20007BE
:101FC000C8F804000226284639464E2210230096FF
:101FD000FEF754FA2846FEF725FA2846002100228B
:101FE0000026FEF7B3FB61A12846FEF7F5FB41F2A0
:101FF00018000596C4F202000168002241F00401B5
:102000000160016801F004010D910D99016841F032
:10201000080101600068022100F008000D900D9891
:102020005846FEF73BFD0DF1080A0124584651467B
:10203000CDE902460494FEF723FC022002A951C117
:10204000059058465146FEF71BFCABF5344048F26C
:10205000A061C0F201014FF4804287E84300384696
:10206000C7E90362C7E90566C7E90766FEF722FD0F
:1020700020B1EFF3108072B6FEE700BF0BF51051F0
:10208000404640F82C1F4FF6FF71CDE914660896C4
:10209000C0E90166C0E90316C0E90566FFF7EAFB7F
:1020A00020B1EFF3108072B6FEE700BF08F12C06F6
:1020B00014A93046FFF7A8FA20B1EFF3108072B6EA
:1020C000FEE700BF00240DA9304600221394CDE99D
:1020D0001144CDE90F44CDE90D44FFF7FDFA28B1D5
:1020E000EFF3108072B600BFFEE700BF4FF4005060
:1020F000079002A930460694CDE90444CDE9024494
:102100000994FFF759FA28B1EFF3108072B600BFB7
:10211000FEE700BF3046FFF7B7FA40F2000A46F28A
:102120006126C4F2C82A0024C6F2634602AF00BF8B
:1021300048460A21FFF7CEFED8F80410401A00F0F6
:10214000DBF8514600F016F8C8F8000028460021D8
:102150000122FEF7FBFA28463946CDE90264FEF774
:102160003BFB4FF4FA70FEF777FBE1E757656967D1
:1021700068743A004FF47F0C1CEAD0121EBF1CEAB0
:10218000D11392EA0C0F93EA0C0F00F0858090EACD
:10219000010F48BF42F4807240F4000C41F400008B
:1021A0002CF07F4120F07F4000B5A2EB030281427A
:1021B0000FF2081CACEB504E9EF800E0C0F100009E
:1021C0004FEA4E0E00FB0EFC38BF49004FEA2C1CB4
:1021D0000CFB0EF34FEACE1E0EEB635E4FEA112CA2
:1021E0000EFB0CFC4FEAC1214FEA1C5300FB03110C
:1021F00002F5FA024FEA112C0EFB0CFC4FEA0131FA
:102200004FEADC4C00FB0C1142EB2242C14228BFDA
:1022100009184CEB03335DF804EB10EB410143EB81
:10222000C250B2F57C0F38BF704729D512F0F00FBD
:102230001CBF00F1C04000F0004070470081828365
:102240008485868788898B8C8D8E8F9192939596C5
:1022500097999A9C9D9FA0A2A3A5A7A8AAACAEB04F
:10226000B2B3B5B7B9BCBEC0C2C5C7C9CCCED1D454
:10227000D7D9DCDFE2E6E9ECF0F3F7FAFE00000084
:102280004FEA400C0CF1807CBCF17E4F28BF7047B8
:10229000B0F1C04000F08EB80CEAD11390EA010F03
:1022A00048BF42F48072624538BF634507D213F4D9
:1022B0007F0F16D080EA010000F00040704710B593
:1022C00000F032F8097EFC3E00F005B880EA01001B
:1022D00000F00040704780EA010000F0004000F08C
:1022E00069B812F47F0F04BF0248704780EA01000A
:1022F00000F060B80000C07F10F0004148BF4042CD
:10230000B0FA80F310FA03F2C3F19D030BD051EA47
:10231000C35101EB1220530638BF704700F1010092
:1023200008BF20F0010070470EF1020E2EF0030EE0
:102330005EF8044B244204D44FEA4102B2F17F4FCD
:1023400011D84FEA4003B3F17F4F0CD80ED14FEABA
:10235000D07C0CEB4C0C0CF1020CB2F17F4F08BF9F
:102360004CEBD17C04E04FF0080C01E04FEAD17C4B
:102370000CEB4C0324FA03F404F00704B4F1040C4E
:1023800006D20EEB840CBDE810404CF0010C604707
:10239000DFE80CF0070802024FF00040A0F58000D3
:1023A00010BD0846420018BFD2F1807288BF00F00D
:1023B000004010BDFF2141EAD050C0057047000029
:1023C00000000000000001020304060708090000E5
:1023D00000000102030401020203040506070809C4
:1023E0000A0B0C0D0E0F101008240008000000202E
:1023F0001000000050010008182400081000002000
:10240000300700007001000801000000100000000B
:0824100000127A000000000038
:04000005080000ED02
:00000001FF
